:020000041000EA
:1000000000B5324B212058609868022188439860DF
:10001000D860186158612E4B002199600221596106
:100020000121F02299502B49196001219960352056
:1000300000F044F80222904214D00621196600F024
:1000400034F8196E01211966002018661A6600F04E
:100050002CF8196E196E196E052000F02FF8012189
:100060000842F9D1002199601B49196000215960AB
:100070001A491B48016001219960EB211966A021F2
:10008000196600F012F800219960164914480160C1
:100090000121996001BC002800D000471248134993
:1000A000086003C880F30888084703B5996A0420EC
:1000B0000142FBD001200142F8D103BD02B5186610
:1000C0001866FFF7F2FF186E186E02BD00000240BE
:1000D000000000180000070000035F00212200005C
:1000E000F4000018222000A00001001008ED00E03C
:1000F00000000000000000000000000074B24E7A12
:1001000000200420F7010010C3010010C5010010F9
:10011000C1010010C1010010C1010010C101001097
:10012000C1010010C1010010C1010010C701001081
:10013000C1010010C1010010C9010010CB01001065
:10014000CD010010CD010010CD010010CD01001037
:10015000CD010010CD010010CD010010CD01001027
:10016000CD010010CD010010CD010010CD01001017
:10017000CD010010CD010010CD010010CD01001007
:10018000CD010010CD010010CD010010CD010010F7
:10019000CD010010CD010010CD010010CD010010E7
:1001A000CD010010CD010010CD010010CD010010D7
:1001B000CD010010CD010010CD010010CD010010C7
:1001C00000BE00BE00BE00BE00BE00BEEFF3058054
:1001D000103800BEF2EB887148E3001070E30010A5
:1001E0003402001090A31AE700201F49086006C8D7
:1001F00081F3088810471D48006800282FD10DA4FE
:100200000ECC002902D000F012F8F9E71849194A7B
:10021000002000E001C19142FCD1174988471749ED
:1002200088471749884700BEFDE701C901C29A42C5
:10023000FBD3704770E30010C0000020DC150020E5
:100240008CF8001000000420000004208CF800103E
:10025000001004200010042000000000704709482E
:1002600003F0EAFE0047000008ED00E0000000D0C7
:10027000E0150020D8270220B52D0010A1030010A2
:10028000712D00105756000006005250ABB360535A
:1002900098CC001006005250861C0302A8CC001017
:1002A000060052505422A29DB0CC001005005250BE
:1002B000DE65F4688CF80010F8B5C04610B5064C41
:1002C0002378002B07D1054B002B02D0044800E017
:1002D00000BF0123237010BD38170020000000006C
:1002E00090BA0010044B10B5002B03D0034904480A
:1002F00000E000BF10BDC046000000003C17002019
:1003000090BA001070B5060014001D00FA22920089
:1003100000230498002104F089FA0019694100299A
:1003200005DB002907DB30607160300070BD012003
:1003300040420449F5E7044B044A3F21044802F0D7
:100340001BFDC046FFFFFF7F90BA001074BC001079
:10035000ACBA001010B5040001F0BEFE002903DBAA
:1003600020606160200010BD024B034A3F2103481A
:1003700002F002FD90BA001074BC0010ACBA00107C
:1003800030B585B004000D0002A8FFF7E3FF00952B
:10039000029A039B2000FFF7B5FF200005B030BD97
:1003A000F0B5DE4657464E464546E0B5A3B004F0EC
:1003B00061FE9F4B1B6898680023022200210AF00F
:1003C000AFFDC820800001F0D3FD00220023089279
:1003D00009938020C005974906900791C020000628
:1003E000954904900591802000069449029003915C
:1003F000009201938022D205914B924804F02EFE88
:100400009148924B0360E1235B0243600223037235
:1004100001334372002343610361C3600AF0C8F8EB
:10042000002807D18A4804F0E9FDFA20400001F0D5
:100430009FFDFAE7874804F0E1FD0AF025F8FF2266
:10044000009250231900844804F008FE09F006FDCC
:10045000824804F0D3FD002500231E1C27E08049BC
:10046000201C04F003FA041C0021201C04F04CFAA8
:100470000028F4D104E07A49201C04F0F4F9041CAB
:100480007749201C04F04EFA0028F4D17549301C3D
:1004900004F003FA061C7449201C04F0FEF9311C18
:1004A00004F0E4F9061C0A2001F062FD0135132D69
:1004B00007DC65480AF01AFA6C4904F0D7F9041C05
:1004C000D2E7B0461F96301C04F0A6FA02000B00DB
:1004D000674804F0C3FD674B674F1F60674D5D6061
:1004E00000269E60DE601E61654C5C616548986117
:1004F0006549D961654A1A62654B1F605D609E60FF
:10050000DE601E615C619861D9611A620A2120ABCC
:100510001800FFF735FF209B219C189319945D4923
:1005200020AB1800FFF72CFF209B219C1C931D94EF
:10053000434614933AE24A49281C04F097F9051CF3
:100540000021281C04F0E0F90028F4D104E044491B
:10055000281C04F088F9051C4149281C04F0E2F924
:100560000028F4D13F49149804F097F9041C3E493F
:10057000281C04F092F9011C201C04F077F9011CDE
:1005800014901F9804F06FF9041C04E03449201CF7
:1005900004F069F9041C4049201C04F0CBF9002840
:1005A000F4D104E02E49201C04F060F9041C3B49FE
:1005B000201C04F0A9F90028F4D160004008802133
:1005C000C90504F0A1F9002800D00024311C201C2A
:1005D00004F049F9324904F04CF9071C3149201C58
:1005E00004F05BF9002104F041F9061C2E49381C87
:1005F00004F053F9011C301C04F038F92B4904F0C5
:100600004CF92B4904F049F915901C9A1D9B1100D7
:100610001A00284B5B6A9A424ED82648806A884264
:1006200000D3CBE19A4201D0012346E0002344E00D
:10063000740D00203333C33FCCCCEC3F3D0AC73FA1
:100640003333D33F10BB0010B01D0020600D0020DD
:1006500068BB001080BB001090BB0010BCBB00103A
:100660000000B443CDCC4C3FCDCC4C3E0000A0416B
:10067000D0BB0010CC1D00206666663F9A99193EDB
:100680000000A04200007F43000096C30000964394
:10069000F01D0020DC05000000003443000034C3DE
:1006A0000AD7233C9A99993EEC51383E35FA8E3C54
:1006B0000AD7A33C004005400023002B00D17FE176
:1006C000E44B98460021159804F0D0F81B90E249BD
:1006D00004F0E3F8061C011C404604F0C4F8DF49AE
:1006E00004F0C7F816904146301C04F0BFF8DB490F
:1006F00004F0BFF8179009F07FFB071C09F084FB9A
:10070000061C0021381C04F0FFF8002800D086E108
:100710000021301C04F0F8F8002800D082E1D04B12
:100720001F60D04B1E60D049381C04F0A2F8CB49A2
:1007300004F09FF8071C1E90CB49301C04F099F878
:10074000C64904F096F81A90391C169804F08BF8F4
:10075000071CC64904F0A1F8C54EF16804F086F8FC
:100760008346F060F3699946336A9A46494604F035
:10077000CBF8002807D15146584604F0DBF8002892
:1007800000D052E1D946BA4E4B46F3603169381C6D
:1007900004F069F8B54904F06CF8824637613168B5
:1007A000381C04F07AF8071C7168484604F075F8A4
:1007B000011C381C04F05AF8071CB168504604F0BC
:1007C0006CF8011C381C04F051F8071C73699A4638
:1007D000B669191C04F098F8002807D1311C381CA0
:1007E00004F0A8F8002800D021E1BA461A99179819
:1007F00004F039F8071C9D4904F04FF89D4EF1684C
:1008000004F034F8F060F2699146326A9346494642
:10081000061C04F079F8002807D15946301C04F072
:1008200089F8002800D004E1B146924E4B46F360AF
:100830003169381C04F017F88C4904F01AF8834623
:1008400037613168381C04F028F8071C7168484685
:1008500004F023F8011C381C04F008F8071CB168E8
:10086000584604F01AF8011C381C03F0FFFF071C5F
:1008700073699946B669191C04F046F8002807D137
:10088000311C381C04F056F8002800D0D3E0B946DB
:100890000021504603F0EAFF061C774904F034F8C3
:1008A000002800D0C9E07549301C04F043F8002846
:1008B00000D0C4E0301C0BF093F88246002148467B
:1008C00003F0D4FF061C6C4904F01EF8002800D089
:1008D000B7E06A49301C04F02DF8002800D0B2E0DF
:1008E000301C0BF07DF8814604F02EF8061C5046B3
:1008F00004F02AF8311C09F017FC614B1868421CFF
:100900001A60142103F0C4FB00293AD1149804F0B2
:1009100083F806000F004B461393534612931A9820
:1009200004F07AF810901191179804F075F80E9071
:100930000F911E9804F070F80C900D91169804F029
:100940006BF80A900B911B9804F066F808900991D7
:10095000404604F061F806900791159804F05CF8A1
:1009600004900591201C04F057F802900391281C74
:1009700004F052F80090019132003B00414804F02D
:100980006DFB189D199E2800310001F04DFA3E4A7A
:100990000023280031008018594102000B1E54DB4F
:1009A000002B00DA80E018921993261C374809F0D2
:1009B0009DFF374903F05AFF051CC1E501237CE682
:1009C00001F08AFB02000B1E21DB1C981D99801A86
:1009D0009941FA229200002303F0A8FB04F012F8D8
:1009E0002C4903F046FF011CFE20800503F03BFF6D
:1009F000061C002103F088FF00280ED11549301C89
:100A000003F04BFF002103F031FF80465AE6224BF2
:100A1000224A3F21224802F0AFF90026EEE7104BB0
:100A20001F6875E60F4B1E6879E6D146ABE6B24605
:100A3000DCE6D946F9E6B1462AE70F4E3AE70F4E13
:100A400038E70D4E4CE70D4E4AE701225242154B56
:100A5000A6E7C046CDCC4C3E1F856B3D6F12033DD3
:100A600054170020581700200000C8420AD7233C22
:100A7000CC1D0020F01D00200000A04200007F439C
:100A80009C1D002000BC001010270000B01D00209D
:100A90000000A0410080BB4490BA001074BC00105C
:100AA000ACBA0010FFFFFF7F024B034A3F2103480F
:100AB00002F062F990BA001074BC0010ACBA0010D9
:100AC00010B58300084A944663441C684022624083
:100AD000C02414408022520113431C60C000034B09
:100AE0009C466044416010BD04C00140004001408C
:100AF00080000B4B9C46604400290DD00823002A3F
:100B00000CD004221343026853400C22134080226D
:100B100052011043036070470023F0E70022F1E721
:100B200004C0014070B50400D0231B061D68AA0054
:100B30000C4BD358002B0AD0002803D0AD00094B32
:100B4000EC5070BD08490D2000F020FBF6E70028AE
:100B5000F7D0AD00034BE850002203490D2000F010
:100B6000FBF9EEE7F01C0020F90B0010072303400F
:100B70009B00C00899403C308000014BC150704739
:100B800000400140F8B507000C0016001D00FFF7FB
:100B9000EDFFFB089B00ED180720384080008440E3
:100BA000002E04D080239B011D432C60F8BDC02380
:100BB0009B011D432C60F9E710B5D0231B061B6871
:100BC000002B03D0024BFFF7DDFF10BD014BFAE70E
:100BD000304101400041014070B514001D00FFF795
:100BE000EBFF2800FFF79EFF002C00D170BD012114
:100BF0000D2000F05DF9F9E7F0B5D6464F464646C0
:100C0000C0B5D0231B061F68BA001D4BD3589846A9
:100C1000002F03D01B4B9946002623E01A4B994620
:100C2000FAE724090135002C1BD033000833AB420E
:100C300017D90F231A00224092462342F1D0BB005D
:100C4000124A9A580123AB401342EAD15146280078
:100C5000FFF78CFF4346002BE3D051462800C047E6
:100C6000DFE708361D2E06D8F30808339B004A46F6
:100C70009C583500D7E7E0BCBA46B146A846F0BD5F
:100C8000F01C00203041014000410140CC240020F4
:100C900010B501238340D02212069362936105218F
:100CA000FFF70EFF10BD0000034B1B680220184029
:100CB000431E9841C0B2704700C00640EFF3108059
:100CC00072B6034B1B68002BFBD0BFF35F8F7047DE
:100CD0002C0100D0BFF35F8F024B00221A6080F31B
:100CE000108870472C0100D0F8B506000C001500E4
:100CF000FFF7E4FFE308F718F15C07222240012325
:100D000093400B4205D1DBB20B433B70FFF7E2FF90
:100D1000F8BD2100280002F0C9F8F0B583B0060044
:100D2000019114001F00FFF7C9FF00E00134BC422D
:100D30000CD8E308F518F35C0721214001228A4012
:100D40001A42F3D1D2B21A432A7001E0012464425C
:100D5000FFF7C0FF002C02DB200003B0F0BD019BB9
:100D6000002BF9D0089802F0A1F80000002307E05A
:100D7000054A9A189200BFF35F8F0021116001337A
:100D80001F2BF5D97047C04640000034054A107843
:100D9000431CDBB21370172B02D9130010221A70F8
:100DA0007047C046600C002000B583B00100044BC2
:100DB00000931F2318220348FFF7AFFF03B000BDC5
:100DC0008CBC0010081D0020074B9B681030800071
:100DD0001950BFF35F8FBFF35F8F044B0021196081
:100DE00082F310887047C04600ED00E0240100D077
:100DF00010B5091A081F0A4B9C466144094A9142E2
:100E000008D8C30706D440104005400D064B1843D0
:100E100080B210BD054B064AA321064801F0ACFF85
:100E2000FC070000FE0F000000E0FFFFA8BC001060
:100E300034BF0010D8BC001010B5091A04394C0892
:100E4000090B08D14905490D064A11430180064B9B
:100E50002343438010BD054B054AAB21054801F0F3
:100E60008BFFC04600F0FFFF00F8FFFF34BD00100D
:100E700008BF0010D8BC001001238340034A10684B
:100E80001840431E9841C0B27047C04600E100E0E0
:100E9000002904D0034B1860034B18607047034BC4
:100EA0001860FBE780E200E000E100E080E100E0A4
:100EB00010B5012383401800FFF7EAFF10BD0000C2
:100EC00001238340014A13607047C04600E200E0FE
:100ED000024B9B6810308000C058704700ED00E066
:100EE00010B5FFF7F5FF002805D0054BC01A2F28D5
:100EF00003D8012010BD0020FCE70020FAE7C0461F
:100F0000640C002070B504000D00EFF3108672B67B
:100F10000C4B1B68002BFBD0BFF35F8F2000FFF74B
:100F2000D7FF094B984201D0A84205D132002900D1
:100F30002000FFF749FF70BD044B054A8621054894
:100F400001F01AFF240100D0CD01001044BD0010B3
:100F500068BF0010D8BC0010F0B5DE4657464E46BC
:100F60004546E0B589B0814601911500EFF3108A3E
:100F700072B6744B1B68002BFBD0BFF35F8F724BB4
:100F80000027DF57002F40DB7C00E419A4006F48E6
:100F900024180622A2566C4B1A706D4B9A684B4669
:100FA00010339B00D35898461E001B1A2F2B38D99C
:100FB000684B98452FD105AE674B33807B009B462D
:100FC000D8198000614B9846404402306349FFF7CE
:100FD0000FFF7080624BB380FF23B371F571019BEB
:100FE00007935F44BF0047440ECE0EC701231C4346
:100FF000A046524641464846FFF7E6FE09B0F0BC1F
:10100000BB46B246A946A046F0BD564B564AD7212C
:10101000564801F0B1FE564B534ADE21534801F0C9
:10102000ABFEC04340440C2103F05AF8002912D112
:1010300001239E43B34633000026DA79AA4211D930
:101040000621595600290CDB4A00521892001E0056
:101050003E4B9B18F1E7474B434AEA21434801F0D6
:101060008BFE1E00002E3AD005AB434A1A80813A0F
:101070005A800623F3560293002B17DA3F4805AB3C
:101080009B469880029A9A71DD71019A0792301DF1
:101090002100FFF7ADFEB080B7717B00DB199B002C
:1010A0002A4FFF185B4607CB07C7A2E77800C01995
:1010B0008000264BC0180430321DB388D90A1C2981
:1010C00007D15B055915023149005118FFF790FE11
:1010D000D5E72B4B2B4AB121244801F04DFE05AE3C
:1010E0001D4B33807B000293D8198000174A90462D
:1010F000020042440392901C1849FFF779FE708069
:10110000039A101D5946FFF773FEB0801E4B5A46D6
:101110004146521A524153431B0DB371F571019A66
:101120000792029B9C466744BF0047440ECE0EC701
:10113000114B5A461380813B538001231C43A04628
:1011400057E7C046240100D0D0270220640C0020BD
:1011500000ED00E0CD01001000A1FFFF940C002085
:1011600001BDFFFF7CBD001050BF0010D8BC0010B7
:10117000A4BD0010CCBD00100148000001BD00005E
:1011800040BE001040BF0010AAAA0000F0B5CE4635
:10119000474680B583B006000D00EFF3108872B6A5
:1011A000564B1B68002BFBD0BFF35F8F544B9A68E4
:1011B00034001034A300D758524B9F4207D0AF429F
:1011C00000D198E00197504BFB1A2F2B09D94246CA
:1011D00039003000FFF7F8FD03B0C0BCB946B04697
:1011E000F0BD3000FFF748FE814600213000FFF7D8
:1011F0005FFEBFF35F8FEFF30581002901D08C42C2
:1012000011D10123019C9C430022A368AB4212D060
:101210000622A256002A0DDB53009B189B002200D9
:10122000394CE418F1E73621384B394AFF31394857
:1012300001F0A2FD2200AB4256D106256557002DD4
:1012400038DB6B005B199A002F4B9B189A68A260E1
:10125000DA79E27106229A56A2719B795BB2002B71
:101260000FDA2D48A0806B005B199B00264AD3182B
:101270002A4A11789971157049463000FFF718FE17
:10128000A5E7201D6B005B199B001F4A9B181A1DC8
:101290009B88D90A1C2907D15B055B1502335900CD
:1012A0005118FFF7A5FDDDE71D4B1E4AB121194876
:1012B00001F062FD002912D1002A0ED0FF239371A4
:1012C000194B9380154A1378A371184B0E49641A71
:1012D000644163431B0D1370CEE70A4FF2E7201DF4
:1012E0001349FFF7A9FDC7E76A21124B084AFF31EE
:1012F000084801F041FD034F69E7C046240100D0D2
:1013000000ED00E0CD010010640C002058BE00107C
:1013100020BF0010D8BC001001BD0000D027022063
:1013200040BE001040BF001001BDFFFFAAAA000090
:101330009E0C00208CBE001070B5012101432E4B85
:10134000CB1A2F2B28D8EFF30583002B2BD0EFF3EC
:10135000108C72B6294A1268002AFBD0BFF35F8F47
:10136000274A0400244D641B64416243120D54B2A9
:10137000244A92689B00D2588A421BD00022032A3A
:1013800032D853009B189B001B49CB189B795BB24A
:10139000A3421FD00132F2E7C7211B4B1B4A490071
:1013A0001B4801F0E9FC92211A4B184AFF311848FA
:1013B00001F0E2FC134A92681749D150174B1A7892
:1013C00082711C70BFF35F8F0C4B00221A608CF38C
:1013D000108870BD0D005300991889006918FF2608
:1013E0008E710F4A8A80E9E7D1210E4B074A4900E6
:1013F000074801F0C1FCC046640C0020240100D065
:10140000AAAA000000ED00E094BE0010ECBE00109F
:10141000D8BC0010BCBE0010CD010010D0270220A7
:1014200001BDFFFFC8BE00100022044B02E00449CA
:1014300002C30132072AFAD97047C04600E400E02F
:101440008080808000B583B00100064B00930523A7
:1014500000220548FFF761FC002801DB1F23181A52
:1014600003B000BDD0BE0010D6270220024B9C4620
:1014700061448900016070474000003410B50400E9
:10148000FFF784FC01002000FFF7F0FF01235B421F
:101490006360BFF35F8F10BD10B50400FFF776FCEB
:1014A00001002000FFF7E2FF01235B42636000239D
:1014B0002372BFF35F8F10BD034B9C4661448900CC
:1014C0000160BFF35F8F70474000003410B5040027
:1014D0000120FFF769FC01002000FFF7EDFF10BDC0
:1014E00070B505000C00080000F0F6FE0949200068
:1014F00000F036FEFFF74AFC074B9C466044800034
:1015000068602C75D0231B061B786B75A400034BF9
:10151000E55070BD1D180010400000342822002046
:1015200010B5084B1A68EFF3108172B61368002BE0
:10153000FCD0BFF35F8F034806F090FA0020002133
:1015400010BDC046E026002010B5002922D0036857
:101550001B7B99421ED8174B9C4661440901836846
:101560009C4661440C684968002A19D003681B7BBB
:101570009A4215D883680F488446624412019A182B
:1015800010685368020001208B4201D80ED0002061
:10159000C0B210BD084B094A3C21094801F0ECFBE0
:1015A000054B064A3C21064801F0E6FBA242EFD873
:1015B000EDE7C046FFFFFF0FD0C0001050C3001082
:1015C0007CC0001010B500291ED0037B99421BD8A7
:1015D0004B005B18033B0468A4466344002919D000
:1015E000002A1DD0914221D0002A25D0047BA2429E
:1015F00022D80468500080180338201881701978A8
:1016000000291FD11A7010BD104B114A68211148D2
:1016100001F0B2FB104B114A6F310E4801F0ACFBE8
:101620000F4B0E4A70210B4801F0A6FB0D4B0B4AE5
:101630007121084801F0A0FB044B054A68210548C8
:1016400001F09AFB41701A70DDE7C046F4C000104B
:10165000BCC3001010C1001078C1001098C3001066
:1016600084C1001090C1001070B506000D00140078
:10167000002914D0002A14D0806873689847002885
:1016800006D0220029003000FFF79CFF280007E069
:101690002A0021003000FFF795FF200000E0100035
:1016A00070BD0800FCE70000F0B583B005000092B3
:1016B00001930AAB1C780BAB1F78002C26D0036873
:1016C0005A7B944207D10123002B19D1002C3BD126
:1016D000200003B0F0BD002C0CD01A7B944209D836
:1016E0001A6863001B19033BD3189B78002BEBD0BF
:1016F0000123E9E73E4B3F4A68213F4801F03CFBAC
:101700003E4B3F4A67213F4801F036FB03689C7B14
:10171000002CDBD012D01A7B94420FD86200121931
:10172000033A19688C46624451789973002900D1B4
:10173000D9730023937053701370C7E72C4B2D4A55
:1017400068212D4801F018FB002C3AD02B681B7B38
:101750009C4236D82C4BE3181B01AA68944663447C
:10176000009A1A60019A5A60089A9A60099ADA6097
:101770002E68002C2BD030D0337B9C422DD86300B8
:101780001B19033B32689446634400229A705A70D6
:101790001A70717B22003000FFF766FF707384427D
:1017A00000D095E7287D009A019B00F021FD061EE0
:1017B00001D0002F17D00C9B002B00D188E71E70A2
:1017C00086E7124B124A3C210E4801F0D5FA114B24
:1017D000114AA521084801F0CFFA054B054A6821B6
:1017E000054801F0C9FA2868210000F039FFE2E756
:1017F000F4C00010BCC3001010C10010A8C100103C
:10180000C8C300107CC00010FFFFFF0FD0C0001045
:1018100050C3001078C00010ACC30010F0B5DE4615
:1018200057464E464546E0B58BB0099000230893D5
:101830008200B54BD658370052E0B44BB44A3F2132
:10184000B44801F099FAB44BB44A3C21B44801F0D1
:1018500093FA002901D1002869D10021404600F007
:10186000F5FEA04219D12A686B6806920793AB680F
:101870009846EB689A464346002B14D0002C18D0AB
:101880003B681B7B9C4214D8631EFA68D35C0893A8
:101890001B0218433861002015E0A24BA24A8E219A
:1018A0009F4801F069FAA14B9F4A92219C4801F0A0
:1018B00063FA994B9E4A4121994801F05DFA002351
:1018C0009A46984600207B68BFF35F8F00221A601B
:1018D00086F310884346002B32D1002800D10CE15A
:1018E00000F0FAFB02000B1EA7DB0020002106908F
:1018F00007917868EFF3108672B601680029FCD072
:10190000BFF35F8F396888464C7B002CD7D09AD0C4
:10191000097B8C4297D8874965182D01B9688C4698
:10192000654428686968801A9941002991DD2A6810
:101930006B68099800F05CFC00239A469846C2E761
:10194000089B1B022343994651461800C0470500D7
:101950000E007A68EFF3108B72B6136859424B4150
:10196000D9B2002BF9D1BFF35F8F002E1EDB002E02
:1019700046DD3B69002B47D04B456DD100F0ACFBF9
:1019800002000B1E6EDB52197341002B70DB002B23
:1019900072DB0021049101310391029451460191BF
:1019A000414600913800FFF77FFE4CE03B69002B79
:1019B000DDD04B4514D1069A079B521BB341002B37
:1019C00014DB002B16DB00210491013103910294FA
:1019D00051460191414600913800FFF765FE32E023
:1019E000554B514AA1214E4801F0C6F901225242FD
:1019F000524BE6E7454B464A3F21464801F0BCF9C9
:101A0000002E01D1002DB4D13B68002C50D05A7B60
:101A1000944237D1012100294AD1DA7B002A4DD1E5
:101A20009A7B002A03D1DA7B002A5AD19C73DC739B
:101A3000002C5CD03B681B7B9C4258D8FA68013C68
:101A4000135D0133135500233B617A68BFF35F8F49
:101A500013608BF3108843E7374B334AA421304897
:101A600001F08AF9294B2A4A3F212A4801F084F9DA
:101A700001225242314B8AE7244B254A3F21254817
:101A800001F07AF9002C0DD01A7B94420AD862003A
:101A90001219033A1868844662449278002ABAD030
:101AA0000121B8E7264B274A6821274801F064F94D
:101AB000264B274AF621244801F05EF9002A0AD075
:101AC000197B8A4207D851008A18033A19688C4654
:101AD00062445470A4E71A4B1A4A68211A4801F06C
:101AE0004BF91C4B1A4AFB21174801F045F90A4BE8
:101AF0000F4A41210A4801F03FF90BB0F0BCBB4648
:101B0000B246A946A046F0BD2822002090BA001097
:101B10001CC30010ACBA0010D0C0001050C300109D
:101B20007CC00010D0C1001034C30010E8C1001008
:101B300074C30010FFFFFF0FF4C10010FFFFFF7F11
:101B4000F4C00010BCC3001010C1001030C200105F
:101B500088C3001054C2001010B50C4B5B68002BFA
:101B600004D00A210A48FFF781FC10BD074C23006E
:101B7000084A1021206800F079FC032000F0A0FA48
:101B800003212000FFF7ACFCEBE7C046AC0C0020C3
:101B9000E02600204915001010B5064B5B68002BAD
:101BA00001D0044810BD044B044A5E21044801F0F2
:101BB000E3F8C046AC0C002068C200105CC3001003
:101BC0007CC00010F0B5DE4657464E464546E0B5AF
:101BD0008BB0804616001F00149B9A46159B9946B1
:101BE00016AB1B789B461F2302AA9446634400222F
:101BF0001A702BE0002809D042461268127B9042EE
:101C000004D8421E4146C9688A5C41E0404B414AC3
:101C10004121414801F0B0F807984CE0361BAF4134
:101C2000002F07DB002F11DA3C4B3D4A3F213D4896
:101C300001F0A2F8012676423B4FF3E7374B384AD2
:101C40003F21384801F098F8002F4FDB43465A688F
:101C5000EFF3108472B6136859424B41D9B2079121
:101C6000002BF8D1BFF35F8F1F3302AA9446634461
:101C700004930023039302934B460193534600932E
:101C800032003B004046FFF70FFD031EB2D10200B9
:101C900041464968BFF35F8F00250D6084F31088CB
:101CA000002B29D01F2302A98C4663441B78002BEC
:101CB000B2D112021043002B20D05B46002B1DD066
:101CC0004946D04704000D0003000B431DD00029F6
:101CD000A4DB00F001FA06000F1EAFDB36196F41DE
:101CE000002FB1DA012676420F4FADE70B4B0C4ABD
:101CF0003F210C4801F040F8012040420BB0F0BCFD
:101D0000BB46B246A946A046F0BD0798F6E7C046D6
:101D1000D0C0001074C300107CC0001090BA001036
:101D20001CC30010ACBA0010FFFFFF7FF8B5040021
:101D3000002900D162E04268EFF3108572B61368A3
:101D400058424341D8B2002BF9D1BFF35F8FCBB2D9
:101D50002268567BB3421BD10120002848D020695D
:101D600088422BD0090AC9B2002B2ED02068007BF4
:101D700083422AD8581EE668305C88422BD0002067
:101D80006368BFF35F8F00221A6085F31088F8BD87
:101D9000002B0DD0167BB3420AD85E00F618033E26
:101DA0001768BC466644B678002ED6D00120D4E72A
:101DB000134B144A6821144800F0DEFF2C21134B0A
:101DC000134AFF31134800F0D7FF134B134A412148
:101DD000104800F0D1FF1900100000F041FC00286D
:101DE000CED199210E4B0A4A49000A4800F0C4FF9F
:101DF00023698B42C4D100232361C1E70020C6E7D9
:101E0000F4C00010BCC3001010C100108CC2001040
:101E100004C300107CC00010D0C0001074C30010B8
:101E2000B0C20010407D7047F0B587B006000F00CB
:101E3000EFF30583002B1FD196246442E517A41904
:101E40007D418D4202D803D1844201D9002400256E
:101E5000002D14DB0494059500F03EF902000B1EE2
:101E600013DBA41A9D41002D17DC14D0300039007B
:101E700000F03EF907B0F0BD204801F017F8204B04
:101E8000204A3F21204800F077FF1D4B1D4A3F218B
:101E90001D4800F071FF002CE8D0FFF77DFE002305
:101EA00002930193194B0093049A059BFFF78AFE56
:101EB000002812DADAE7002300E00023002BD5D156
:101EC000134B1A68EFF3108172B61368002BFCD025
:101ED000BFF35F8F0E4805F06DFD0499059A0D4B19
:101EE0005B6A9A42E9D80B48806A884203D29A42D8
:101EF000E1D00123E2E70123E0E7C046B4C20010CD
:101F000090BA00101CC30010ACBA001021150010CC
:101F1000E02600200040054070B504000D0000F0F0
:101F2000DBF802000B1E0ADB200029008018594153
:101F300000290ADB00290CDBFFF776FF70BD084B98
:101F4000084A3F21084800F017FF01204042074996
:101F5000F0E7034B034A3F21034800F00DFFC04662
:101F600090BA00101CC30010ACBA0010FFFFFF7F36
:101F700010B5FA2292000023002102F057FCFFF76F
:101F8000CBFF10BD70B584B005000C00EFF30583E6
:101F9000002B1ED1FFF700FE002302930193224B7A
:101FA00000932A002300FFF70DFE061E23DD20BF4D
:101FB000FFF7F2FD3100FFF7B9FE1C4B5B6A9C4254
:101FC0002DD81A4A926AAA422CD29C4225D00120CE
:101FD00026E0164B5B6A994209D8144A926A8242FB
:101FE00007D2994201D001201AE0002018E0002019
:101FF00016E0012014E00D4B5B6A9C4209D80B4AA5
:10200000926AAA4207D29C4201D0012008E0002037
:1020100006E0002004E0012002E0002000E00020B3
:1020200004B070BD0120FBE7211500100040054001
:1020300070B5EFF305801038EFF3108C72B61A4BC1
:102040001B68002BFBD0BFF35F8F0122130083407E
:1020500016494B6316490B60164909780C00C440B9
:10206000224214D0114A546A8200134D52599442AC
:1020700006D38200114C125999430E4B197007E098
:102080000A4A031D9B0099589950002200E0002243
:10209000BFF35F8F044B002119608CF31088002A76
:1020A00000D0904770BDC046280100D000400540D8
:1020B0003C700540D4270220EC260020E01B0020C5
:1020C00010B50100024A0348FEF70EFE10BDC046DF
:1020D000E8C30010CF270220044B5B6A034A906AD2
:1020E0001900536A9942F9D17047C0460040054033
:1020F000084B5B6A01E0074B5B6A8B42FBD301E054
:10210000044B5B6A8B4203D1024B9B6A8342F7D339
:102110007047C0460040054070B504000D00FFF751
:10212000DBFF02000B0020002900801859418B4280
:1021300002D804D1824202D901204042C1170029AD
:1021400002DBFFF7D5FF70BD024B034A3F21034876
:1021500000F012FE90BA0010ACC40010ACBA00102F
:1021600070B504000D00EFF3108672B61B4B1B68B0
:10217000002BFBD0BFF35F8F002D1CD02000FEF79B
:10218000A7FE174B83420BD019002000FEF7BAFEC2
:1021900001212000FEF78CFE0123A340114A1360A9
:1021A000A400114BE550BFF35F8F0C4B00221A6067
:1021B00086F3108870BDA2000B4B0021D150012284
:1021C000A2400A490B7893430B7005492000FEF7A3
:1021D000DDFF00212000FEF76BFEE4E7280100D0C0
:1021E0003120001038600540E01B0020D427022079
:1021F000F0B5DE4600B584B00400150001921E0063
:102200000293FFF769FF03958E4202D84ED18542B3
:102210004CD9EFF3108B72B6274B1B68002BFBD009
:10222000BFF35F8F254A17780125A540EBB23B43EA
:102230001370234B5D63221D92000199D150A200BF
:102240002049029850501B6A2B4212D11C4B1B6C28
:102250002B4208D00020BFF35F8F174B00221A607B
:102260008BF3108823E0184B184AC521184800F05A
:1022700083FDFFF731FF8E4214D802D1039B8342C6
:1022800010D80E4B1B78BB420ED00D4B1D625D6308
:102290001F2004400123A3400E4A1360074B1F7008
:1022A0001E38D8E70020D6E70120D4E7012004B08B
:1022B00080BCBB46F0BDC046280100D0D427022018
:1022C00000400540EC2600200CC4001090C4001013
:1022D00030C4001080E200E0EFF3108C72B60B4BBC
:1022E0001B68002BFBD0BFF35F8F01238340084A9C
:1022F000136208490A789A430A70BFF35F8F034B51
:1023000000221A608CF310887047C046280100D064
:1023100000400540D427022010B500291ED0037BC1
:1023200099421BD84B005B18033B0468A4466344E6
:10233000002919D0002A1DD0914221D0002A25D091
:10234000047BA24222D80468500080180338201869
:102350008170197800291FD11A7010BD104B114AD5
:102360006821114800F008FD104B114A6F310E48EA
:1023700000F002FD0F4B0E4A70210B4800F0FCFCF0
:102380000D4B0B4A7121084800F0F6FC044B054A3E
:102390006821054800F0F0FC41701A70DDE7C04686
:1023A000F4C00010CCC5001010C1001078C100109E
:1023B000B8C5001084C1001090C1001070B50600AF
:1023C0000D001400002914D0002A14D0806873680E
:1023D0009847002806D0220029003000FFF79CFF14
:1023E000280007E02A0021003000FFF795FF2000B9
:1023F00000E0100070BD0800FCE7000010B50023ED
:10240000437301338373037BC3730123027B9A42BB
:1024100014D9002B0CD0027B934209D85A00D21851
:10242000033A01688C4662440133DBB25370EDE736
:102430000B4B0C4A68210C4800F09EFC002A09D086
:10244000924207D8016853009A18033A8A18002369
:10245000537010BD024B034A6821034800F08CFC06
:10246000F4C00010CCC5001010C1001010B50173ED
:1024700042608360FFF7C2FF10BD000070B504002A
:10248000081E00D170BD002934D0237B994231D879
:102490004B005B18033B2268944663445A78002A39
:1024A000F0D02DD0237B9A422AD853009B18033BAF
:1024B00021688C4663445D7800215970002825D03E
:1024C000237B984222D843001B18033B21688C468B
:1024D00063440021597001002000FFF76FFF0600E0
:1024E00029002000FFF7CAFF020031002000FFF79B
:1024F00065FFC7E7084B094A6821094800F03CFC22
:10250000054B064A6821064800F036FC024B034A98
:102510006821034800F030FCF4C00010CCC5001066
:1025200010C1001070B505000C00160000292FD056
:1025300034D0037B994231D84B005B18033B0268CF
:10254000944663445A78002A2ED19A78002A31D1D1
:102550001978FFF793FF0300002E0AD0EA7B002AC8
:102560002ED1AA7B002A03D1EA7B002A3BD1AC738F
:10257000EC73002B3DD1002C4FD02B7B9C424CD8D0
:102580002B6861000C19033C1C190023637070BD9B
:10259000254B264A3821264800F0EEFB254B264ADB
:1025A0006821264800F0E8FB254B204A3A212048C4
:1025B00000F0E2FB234B1D4A3B211D4800F0DCFBF1
:1025C000002A0AD0297B8A4207D851008A18033A88
:1025D00029688C4662445470C3E7164B164A68213A
:1025E000164800F0C9FB184B104A4221104800F071
:1025F000C3FB002B0BD02A7B934208D843001B1847
:10260000033B2A689446634400229A70B3E7094B5F
:10261000094A6821094800F0AFFB064B064A6821C9
:10262000064800F0A9FBC046C4C40010A4C50010B1
:10263000CCC40010F4C00010CCC5001010C10010B4
:1026400020C5001048C5001054C2001070B5040029
:102650000A00457B2900FFF765FF6073280070BD05
:1026600070B50400002967D0437B8B420ED000294F
:1026700011D0037B99420ED84B005B18033B0268D4
:10268000D0188378002B0CD1002056E00121FFF7F1
:10269000DDFF012051E0294B294A6821294800F03B
:1026A0006BFB002B20D0227B93421DD85A00D318FD
:1026B000033B2268D2182568EB5C8B421AD0002BB2
:1026C0001BD0227B934218D85A00D318033B2268B0
:1026D000D21853788B4216D0002BF0D11A4B1B4ADC
:1026E0006B211B4800F048FB144B154A6821154824
:1026F00000F042FB4378137007E0104B104A68214A
:10270000104800F039FB4378537000238370437006
:1027100001222000FFF706FF0200617B814205D005
:102720002000FFF74BFE6073012006E0094B074ACB
:102730007121074800F020FB002070BDF4C000109C
:10274000CCC5001010C10010C8BE00108CC5001010
:10275000CCC400106CC5001070B5046BE30701D445
:10276000200070BD02003032C0239B0113430A4A8F
:102770001A60456A826AAD01AD18AD02062000F00C
:10278000BDF9064901F0ACFC0100280001F0A8FCED
:102790000021FFF7C1FCE3E7010300004E0E00003B
:1027A00070B504000E001500FFF7D6FF22002C3292
:1027B000E16A4E40354080235B0113431D60206376
:1027C00070BD000070B505000C00062000F096F901
:1027D000C000210001F084FCC60908D00E4B9E42C7
:1027E00016D87F23184001303400460800E0012449
:1027F0006C62AE62002200212800FFF7D1FF0620A4
:1028000000F07CF98000A101891901F069FC70BD1C
:102810000026024CECE7C046FEFF0000FFFF000070
:1028200010B505394901013AD2001143002B09D0F6
:1028300002220A43012B07D0002111436E22FFF729
:10284000AFFF10BD0022F4E70421F6E7002909D00C
:102850000A22064B9C466044434258414000044BC8
:10286000C252704780225200F3E7C0460080FCBF8E
:10287000FC26002070B505000C00062000F03EF993
:10288000061E27D0164B9D4226D08022D203154B20
:102890001A60154B1A60154B9B6811009943FAD1C9
:1028A00000212800FFF7D2FF21002800FFF78AFF50
:1028B00006000023012208212800FFF7B1FF2A00AB
:1028C0002C3280239B01134310221A60084B2B6388
:1028D0000323AB64300070BD80221204D7E7C046EA
:1028E0000080034000E0004000F0004000C00040D5
:1028F00001030000F8B5DE4657464E464546E0B5B2
:1029000005000F0092460A9A934250D31A0E914640
:102910001E020A9A00233000494601F01FFC80463F
:102920006C006419A400304B9C4664446368834285
:1029300000D260602B1FDBB29B46012B3DD9C02328
:102940009B012343802212011A60AB00274A995849
:10295000002907D0506901F0C3FB431C5800C01880
:102960000338FDD253465A0123685A40E0231A40E7
:1029700080235B0123431A605A46012A28D9802309
:102980009B012343802212011A6043466360424642
:1029900000233000494601F0E1FBAD00134B5851D4
:1029A0000120F0BCBB46B246A946A046F8BD104B7C
:1029B000104A3321104800F0DFF9012FBFD1C023A6
:1029C0009B01234303221A60A368DB07FCD5C9E7F8
:1029D0002168794003220A401A60A2680123BB40A3
:1029E0001342FAD0CBE7C046008000400C1D002007
:1029F000D8C500104CC60010ECC5001030B583B02F
:102A00000C2000F011F9FEF74FF900280DD000233B
:102A100004E099002D4A2E4888500133092BF8D93B
:102A20002A4B2C4A5A6203B030BD2B4B00229A67C6
:102A300000F06CF9294B01221A60274B5B6C012BCB
:102A4000FBD1274B03221A60234B9B6B012BFBD13D
:102A5000013300930433234A0121234800F054F842
:102A600005230093214A0121214800F04DF8214B14
:102A70000093002202210420FFF73CFF1E4D009529
:102A80002B00002201210520FFF734FF104C009499
:102A90002300002200210720FFF72CFF00942300D1
:102AA000002200210820FFF725FF0A4B0093230096
:102AB000002200210920FFF71DFF00952B000022B6
:102AC00000210620FFF716FFADE7C0460C1D0020D1
:102AD000006CDC021BB70000008000403CB00040EE
:102AE00030B00040002F685900800240008C8647BB
:102AF00000C00240001BB700405973078000014B23
:102B0000C05870470C1D0020F0B5C64600B5040043
:102B10000E0017001D00374801F0E2FA8046364BE0
:102B2000FA18364B9A4239D80100380001F0D8FA29
:102B30000200103A98235B009A4235D86B1E062B90
:102B400038D8069B013B062B34D83F09474537D37D
:102B50002D04069B1A0315432368002B36DB284BF4
:102B60009C4244D080225201264B1A60264B1A60A8
:102B7000264B9B6811009943FAD12660A060231D63
:102B8000C02292011A43212313602368002BFCDA30
:102B9000E5600823136080BCB846F0BD1C4B1D4A9D
:102BA00011211D4800F0E8F81C4B1A4A19211A4857
:102BB00000F0E2F81A4B174A1C21174800F0DCF825
:102BC000184B144A2321144800F0D6F822683F23FA
:102BD0001340B342C3D1A3681B051B0D8342BED172
:102BE000E368EE22D2021340AB42B8D1D3E7802291
:102BF0009201B9E7001BB70080E84BD380F8A932F7
:102C000000C0024000E0004000F0004000C0004072
:102C10005CC600109CC70010BCC6001018C700108E
:102C200034C7001080C7001080239B000343014A73
:102C3000D362704700800540024B1A68024B5A600D
:102C40007047C046182200200080054010B50200E1
:102C5000164B8020C0051860154B164818600029D7
:102C60000AD0154BE021C9041960002A09D1124B82
:102C7000802212061A6010BD0C4BE021C9041960B5
:102C8000F3E753019B1A9800801800010B4B186062
:102C900080235B04984202D3084B094A1A60FFF76D
:102CA000CBFF054B8022D2051A60E4E700B0054057
:102CB00008200140FCFF010000A005401822002070
:102CC000FFFFFF0010B5030010000C4A8024E4054C
:102CD0001460002B0DD001221343094A094CD46122
:102CE000094C5C401462516293620021FFF7AEFF11
:102CF00010BD034B0022DA61F7E7C04600B0054083
:102D000000800540D3C007B02D3FF84F064BAA22E4
:102D100012011A602F22DA60044B054A1A60024B36
:102D20005B68002BFBDA7047004002400060024005
:102D300000B0FA0000BEFDE703000A4A1268002A4C
:102D400008D0084A1068C318074A9A4206D3054AB1
:102D500013607047034A05491160F2E701204042C1
:102D6000F7E7C046141E002000000420D8270220E8
:102D700010B5FFF7DFFF000010B582B00C0019009E
:102D8000002A0CD0084B002A0BD00192009323009C
:102D90000200064802F062F90120FFF7CBFF044B66
:102DA000F1E7034AF1E7C046A8C70010B8C7001012
:102DB000B4C7001070B52B4B2B4A1A602B4B2C4A12
:102DC0001A602C4B9A682A4B9343FAD12A4C01E0A3
:102DD00008CC9847294B9C42FAD3FFF70FFE234BB0
:102DE000274A1A60234B9B68DB43DB01FAD1254B52
:102DF00040229A675A671A67DA66234C09E0234B28
:102E0000234A87212348FFF7B7FF2000FEF736FB50
:102E10000834214B9C4209D22368002BF5D0012BAA
:102E2000EDD12000FEF738FB0C34F2E71B4CA16813
:102E30001B4DC022280001F04DFFA560EFF3058374
:102E4000002B00D000BEFDF791FFFEF7EDFAFEF774
:102E500083FE144C01E008CC9847134B9C42FAD3F4
:102E600070BDC04600E00040BFCDFBFE00F000405A
:102E7000FE7F3C0000C00040C0150020D01500209F
:102E8000FFFFFF0100F00140B0150020E8C700106F
:102E900088C8001008C80010C015002000ED00E030
:102EA00000000020D0150020DC1500200FB400B574
:102EB00083B0084802F0A2F8049B002B07D005A9B4
:102EC0000191180002F0AAF8034802F097F80120D7
:102ED000FFF730FF68C80010FCBB001010B50148B8
:102EE000FFF7E4FF78C80010704710B5002802D043
:102EF0000B684968984710BD0100002007E0830077
:102F00001B185B00501C08601078C01830380A6825
:102F10001378303BDBB2092BF1D97047F0B5DE46B0
:102F200057464E464546E0B583B093461F000C9B7E
:102F30009A460D9C0E9B99460F9B9B0703D0B84663
:102F40000F00060022E00192A34688464E46B9468D
:102F50000700B44207D2551C4B4641462020B847D3
:102F600001342A00F5E73D004F465C46019B9B4635
:102F7000B1464646B84637002E0007E0013C551CD6
:102F80005346185D43463900B0472A00002CF5D15E
:102F900035003E0047460F9B9B0707D4100003B047
:102FA000F0BCBB46B246A946A046F0BDB0464E4670
:102FB000B9462F005D46531BB342EFD2541C4B461B
:102FC00041462020B8472200F5E7F0B5CE464746F7
:102FD00080B585B0944698460C9D0D9C0EAB1B7831
:102FE0009946109A119B129EB7071CD4002B0CD047
:102FF000F7070AD54F46002F02D10C37374204D0CD
:10300000013B02E030272F550134944201D21F2C9E
:10301000F8D9F70707D59C4205D21F2C03D83027D3
:103020002F550134F5E7F70615D5770505D4002CA3
:1030300003D0944224D09C4222D00F9A102A2BD045
:103040000F9A102A30D00F9A022A35D01F2C02D89E
:1030500030222A5501341F2C05D84A46002A31D087
:103060002D222A550134039602930194009543467C
:103070006246FFF753FF05B0C0BCB946B046F0BD8D
:10308000621E012C06D00F9F102F01D01400D4E730
:10309000023CD2E71400D0E7B206D1D41F2CCFD81F
:1030A00078222A550134D1E7B206CCD51F2CCAD8D4
:1030B00058222A550134C9E71F2CC7D860322A5537
:1030C0000134C3E7720703D52B222A550134CAE71E
:1030D0003207C8D520222A550134C4E7F0B5DE46B0
:1030E00057464E464546E0B593B081468A4608921B
:1030F00009931CAB10CB1B789B461E9D219B9846C9
:10310000002C03D1102342469A4390468023DB00D3
:1031100046461E4042461A4212D0002C22D00026BB
:103120000EE03033D9B2771C0AAB99552900200044
:1031300000F0D6FFAC4216D31F2F14D83E00040077
:103140002900200000F0CCFFCBB2092BE9D9424680
:10315000920605D54121C918C9B20A39C9B2E2E7B8
:103160006121F8E7270043460693209B05931F9BA8
:10317000049303955B46029301970AAB0093099B66
:10318000089A51464846FFF720FF13B0F0BCBB46F3
:10319000B246A946A046F0BDF0B5DE4657464E46BB
:1031A0004546E0B595B0089009910A920B931E9E92
:1031B0001F9C20AB1B789B46229B9946239D269BF8
:1031C0009A463300234303D1103352469A43924622
:1031D0008023DB0057461F4052461A4219D0330065
:1031E00023432DD0002714E03033DAB27B1C9846FD
:1031F0000CABDA554A462B003000210000F0AEFF40
:10320000A5421FD819D043461F2B1BD8474606009E
:103210000C004A462B003000210000F09FFFD3B283
:10322000092BE1D95246920605D54122D218D2B2D5
:103230000A3AD2B2DAE76122F8E7B145E3D901E010
:103240000023984653460693259B0593249B04939D
:103250004B4603935B460293434601930CAB0093AA
:103260000B9B0A9A09990898FFF7AFFE15B0F0BCBE
:10327000BB46B246A946A046F0BD0000F0B5DE460A
:1032800057464E464546E0B591B083468A460C9275
:1032900098461A9C08941B9D099522002B0020003B
:1032A000290001F0D6F9002800D0E5E001225242C1
:1032B000D74B2000290001F0C7F9002800D0DBE03F
:1032C00001225242D34B2000290001F0A7F9002827
:1032D00000D0D1E000220023089E3000099D290083
:1032E00001F09CF9002800D0DDE0089809990690CB
:1032F00007918023DB001E9A1A400D921E9A1A42F3
:1033000001D106231C930698079904000D000A00BA
:103310000600024300D1D1E0080D4005400DBE4C2F
:10332000A44660440A03120BBC4B13431F0001F078
:10333000A3F9BB4ABB4B01F032F9BB4ABB4B01F0CE
:103340000FF904000D000022B94B3000390001F0E4
:1033500002F9B84AB84B01F022F902000B00200034
:10336000290001F0FDF801F09FF9814601F084F990
:1033700004000D00B14AB24B01F011F90022B14B2B
:1033800001F0EEF801F090F90600AF4AAF4B2000D3
:10339000290001F004F904000D00300001F06CF97F
:1033A000AB4AAC4B01F0FBF802000B0020002900F7
:1033B00001F0D1F804000D0002000B0001F0EFF85D
:1033C0000A900B91A44BF31800261F0522002B0036
:1033D0002000290001F0C4F80E900F9122002B006C
:1033E00000208021C90501F0B6F804000D0000227C
:1033F0009A4B0A980B9901F0B8F80022984B01F00B
:10340000AFF802000B000A980B9901F0AEF8002209
:10341000944B01F0A5F802000B000A980B9901F0FB
:10342000A4F802000B002000290001F099F8020026
:103430000B000E980F9901F098F80022774B01F0DD
:103440008FF832003B0001F0AAF806000F000400DC
:103450000D00069A079B01F0F7F8002830D00123F1
:103460005B429C46E14400227D4B3000390001F074
:103470007CF804000D0023E01E9B04931D9B039326
:103480001C9B0293089A099B0092019343460C9A55
:103490005146584600F0FCF811B0F0BCBB46B246AD
:1034A000A946A046F0BD0023002406930794069683
:1034B00080231B069C46654407951AE7002399461E
:1034C0004B466333C62B1ED804261E9B1B0526D5F0
:1034D0002B0023430FD0644A644B0698079901F0F0
:1034E000ABF8002879D00022614B0698079901F0CB
:1034F00095F8002871D01C9B4B4506DD4A46981A6A
:10350000431E1C9303E00526DFE700231C93802362
:10351000DB001E9A1A431E920026002399461D9B2B
:103520009E4264D29F1B02231E9A1A400A921E9A40
:10353000134202D0002E00D000274B46002B07D0AC
:1035400022002B000698079901F00FF806900791CA
:10355000002200230898099901F060F8002848D15A
:10356000444B1E9A1340049303971C9B0293069BA3
:10357000079C0093019443460C9A5146584600F02C
:1035800087F8002E00D187E71E9B9B063DD5452579
:10359000441C4346020051462800D8474B46DA17E0
:1035A0009B18534005220592013E04960022039287
:1035B0000A3202924A46D00F0190009343462200FD
:1035C00051465846FFF78AFD0A9B002B00D163E75E
:1035D00002005F460C9E1D9D54E01C9B002B9ED05C
:1035E0000D9B002B9BD01C9B013B1C9397E7002756
:1035F00099E7069C079D220029008020000684464A
:1036000061440B0006920793AAE76525C0E7C04610
:10361000FFFFEF7FFFFFEFFF01FCFFFF0000F03F28
:10362000FB799F501344D33FB3C8608B288AC63FB1
:103630000000F83F61436F63A787D23F71A3790908
:103640004F930A400000E03F1655B5BBB16B0240F6
:10365000EF39FAFE422EE63FFF03000000002C4047
:1036600000002440000018402D431CEBE2361A3FB6
:1036700080842E41FFF7FFFF541C43465146202013
:10368000B8472200931BAB42F6D3100004E7C046B4
:10369000F0B5DE4657464E464546E0B595B0069035
:1036A000079193469946209F1E9A1F9B1000190070
:1036B00000F0CFFF002831D101225242BF4B1E98AB
:1036C0001F9900F0ABFF002837D101225242BC4BBA
:1036D0001E981F9900F0B8FF00283DD10022B94B79
:1036E0001E981F9900F0B0FF002850D10022B64B61
:1036F0001E981F9900F092FF002848D10022002355
:103700001E981F9900F08AFF002850D10023984688
:10371000229B5B0500D4B6E0002458E0229B039373
:10372000219B029303230193A84B00934B465A46D7
:1037300007990698FFF7F2FB0EE1229B0393219B6A
:10374000029304230193A24B00934B465A460799D8
:103750000698FFF7E3FBFFE00423229A1A40229920
:103760000B4210D09B4B002A0FD0042222990391C8
:1037700021990291019200934B465A460799069867
:10378000FFF7CCFBE8E0944BEDE70322EEE7229B4A
:103790000493219B039302971E9B1F9C009301940B
:1037A0004B465A4607990698FFF768FDD4E01E9AE3
:1037B0001F9B0020002100F0CEFE1E901F910123D0
:1037C0009846A5E70CAB30221A55013F01341F2C57
:1037D00001D8092FF6D81E981F9900F065FF050043
:1037E00000F04AFF02000B001E981F9900F0B3FE84
:1037F000FA007A4B9B181A685B680A920B9300F0E8
:10380000CEFE0890099100F073FF060000F030FF33
:1038100002000B000898099900F09DFE089009919C
:1038200000226F4B00F010FF00282ED00136300030
:1038300000F01EFF02000B000A980B9900F0F4FE46
:10384000002801D001350026002F2CD1280000F0DF
:1038500013FF02000B001E981F9900F07CFE06006B
:103860000F0000225E4B00F0D9FE002846D1002256
:103870005B4B3000390000F0E7FE00283ED1EB073B
:103880003CD501353AE0062746E70022544B08981C
:10389000099900F0C3FE0028D6D1002E01D0F3070D
:1038A000D2D50136D0E7AA461F2C11D8013F0A21F4
:1038B000300000F015FC651C30310CAB19550A21A5
:1038C000300000F00DFC092E0ED906002C00EBE7AD
:1038D00055461F2C0CD87B1E002F09D00CAA302176
:1038E00011551F000134F4E72B0055461C00F0E78A
:1038F0001F2C03D80CAB2E221A5501341F2C10D8C4
:103900000A21280000F0C4FB661C30310CAB1955AD
:103910000A21280000F0BCFB051E01D03400EDE7B1
:1039200034000323229A1340012B1CD01F2C06D8ED
:103930004346002B32D00CAB2D221A550134229B6A
:103940000393219B029301940CAB00934B465A4680
:1039500007990698FFF7E2FA15B0F0BCBB46B246ED
:10396000A946A046F0BD219B002B13D04346002B57
:1039700002D10C3313420FD0219B013B219319003C
:1039800003E00CAB30221A5501348C42CED21F2CEE
:10399000F7D9CBE72199F8E72199F6E7229B5B0756
:1039A00004D50CAB2B221A550134C8E7229B1B0708
:1039B000C5D50CAB20221A550134C0E7FFFFEFFF3D
:1039C000FFFFEF7F65CDCD4165CDCDC1A4C800100F
:1039D000A8C800109CC8001098C8001090CA001019
:1039E0000000E03FF0B5DE4657464E464546E0B59E
:1039F00093B082468B4690461193002900D1EBE2AA
:103A000000275546119B1878002800D1E7E22528A9
:103A100009D07C1C43463A005946A847119B013304
:103A200011932700EEE7013311930024119A1178C6
:103A30000B00203BD8B2102803D88300D048C358CD
:103A40009F460B00303BDBB2092B2CD92A292FD003
:103A500000230A93119B1A782E2A39D000239A4604
:103A6000119A1378683BD9B2122976D88B00C549D0
:103A7000CB589F4601231C4301321192D6E7022303
:103A80001C4301321192D1E704231C4301321192ED
:103A9000CCE708231C4301321192C7E710231C43D3
:103AA00001321192C2E711A8FFF726FA0A90D1E776
:103AB0001C9B1A1D1C921868002804DB0A90119B9D
:103AC00001331193C6E702231C4343420A93F6E7EE
:103AD0008022D20014435A1C11925A781300303BB2
:103AE000DBB2092B04D92A2A07D000239A46B7E76C
:103AF00011A8FFF701FA8246B2E71C9B1A1D1C921F
:103B00001868002804DB8246119B01331193A7E754
:103B10000020F8E780235B002343511C1191527869
:103B20006C2A01D01C0018E0C0239B001C4301310B
:103B3000119112E080232343511C11915278682A7D
:103B400001D01C0009E0C0231C430131119104E0A5
:103B500080235B001C4301321192119B18780300F3
:103B6000253BDAB2532A00D92CE29300864AD35877
:103B70009F4680239B001C4301321192EDE7802376
:103B80005B001C4301321192E7E7782809D05828DE
:103B900038D06F2838D0622838D010239C430A26AA
:103BA00000E01026582833D0692803D0642801D0BB
:103BB0000C229443630501D50122944369282AD03D
:103BC000642828D0A30500D59FE0E30500D5B8E020
:103BD000630600D4CAE01C9A111D1C911168FF22D3
:103BE0000A4005940A9B04935346039302960023CC
:103BF0000193009243463A0059462800FFF76EFAB7
:103C0000070027E01026CDE70826CBE70226C9E704
:103C100020221443C8E7A30520D4E30550D463064B
:103C200066D51C9A111D1C911168FF220A40D317FA
:103C3000D118594005940A9B049353460393029666
:103C4000D20F0192009143463A0059462800FFF7EF
:103C500045FA0700119B01331193D3E61C9BDA1D33
:103C600007218A43110008311C91116853689C4652
:103C7000DB170C930D930C9A0D9B100048400E908F
:103C8000624653400F930E980F990C9A0D9B801A21
:103C900099410E900F9108940A9B079353460693FF
:103CA0000496002305936346DA0F02920090019177
:103CB00043463A0059462800FFF76EFA0700C9E765
:103CC0001C9A111D1C911268D317D11859400594E4
:103CD0000A9B0493534603930296D20F01920091DC
:103CE00043463A0059462800FFF7F8F90700B1E7C4
:103CF000230605D51C9A111D1C910023D25E96E760
:103D00001C9A111D1C91126891E71C9BDA1D07215A
:103D10008A43110008311C9108940A9B079353466B
:103D20000693049600230593029313685468009346
:103D3000019443463A0059462800FFF72DFA070040
:103D400088E71C9A111D1C9105940A9B0493534605
:103D500003930296002301931368009343463A00AD
:103D600059462800FFF7BAF9070073E723060DD577
:103D70001C9A111D1C9112681204120C31E7C046E6
:103D8000B0C80010F4C8001040C900101C9A111DE2
:103D90001C91126825E746281AD01C9B073307227E
:103DA00093431A0008321C9204940A9A03925246D2
:103DB00002925C681B680093019443463A0059469E
:103DC0002800FFF765FC0700119B0133119319E6EA
:103DD00020231C43E1E7672801D0472802D1802334
:103DE0001B011C43452801D0472801D120231C4337
:103DF0001C9B0733072293431A0008321C92049439
:103E00000A9A0392524602925C681B6800930194DE
:103E100043463A0059462800FFF730FA0700119B45
:103E200001331193EEE502231A0022409246234209
:103E30001FD001241C9B1A1D1C927A1C91461878D5
:103E400043463A005946A8475346002B16D1119BCA
:103E5000013311934F46D5E5561C43465946202061
:103E6000B847230032005C1C9D42F5D83D00170086
:103E7000E0E701233A002F000A9DF4E74A46A946ED
:103E80000A9D06E0571C434659462020C847340087
:103E90003A00661CA542F5D84D469146D7E71C9BD3
:103EA0001A1D1C921B6899465346002B00D1013BFA
:103EB0004E4601E0013613003278002A02D05A1E25
:103EC000002BF7D14B46F21A10928023DB0026001C
:103ED0001E401C4203D0524501D953461093022381
:103EE0001A0022400B92234205D03A0037004C467C
:103EF000A946554620E03A00109B5F46B3462E0087
:103F000006E0551C434639002020B04723002A0014
:103F10005C1C0A999942F4D835005E46BB46109461
:103F200037004C46A946554606E01D000134561C94
:103F300043465946C84732002078002804D0002F55
:103F4000F4D06B1E002DF0D117004D460B9B002BBB
:103F500003D1119B0133119354E50A9F109B06E096
:103F6000561C434659462020A847230032005C1CBB
:103F70009F42F5D81700ECE721231C431C9B1A1D18
:103F80001C921B68009305940823049353460393E3
:103F9000102302930023019343463A005946280018
:103FA000FFF79CF80700119B013311932AE57C1C55
:103FB00043463A0059462520A847119B01331193E7
:103FC00027001FE57C1C43463A005946A847119B31
:103FD00001331193270015E50A4B9A4610E5AA46CE
:103FE000474502D343465A1E00E03A00434659462D
:103FF0000020D047380013B0F0BCBB46B246A946FB
:10400000A046F0BDE92E001000B585B002900391E6
:104010000121009313004A4202A90248FFF7E2FC83
:1040200005B000BDEB2E001001480421014B1847DC
:10403000E00C00205940001010B5010018231B8827
:1040400014221088984710BD10B5010018231B8852
:1040500016221088984710BDF0B5C64600B5070077
:104060000E0000250123984600E00135B5420AD232
:10407000AC003C192068FFF7DFFF20600028F4D176
:1040800000239846F1E7404680BCB846F0BD0000EA
:10409000124A936F9B0815D29066D166002905D00D
:1040A000FFE7FFE7FFE7516F106F704704B580210E
:1040B0000906C2175140002800D0C84307F098FCF9
:1040C000002104BDF0B5146E556E576F166FFFF7E3
:1040D000E3FF1466556657671667F0BD000000D011
:1040E000114A936F9B0813D210665166002905D0C0
:1040F000FFE7FFE7FFE7516F106F704704B5002837
:1041000001D00020C04307F073FC002104BDC0466D
:10411000F0B5146E556E576F166FFFF7E5FF146616
:10412000556657671667F0BD000000D094464A4AAE
:10413000926F9208624601D228E0C046F0B5464E22
:10414000346E756E776F366F00F020F89446424AF1
:1041500014665566576716676246F0BD94463E4A38
:10416000926F9208624601D254E0C046F0B53A4ED2
:10417000346E756E776F366F00F04CF89446364AA1
:1041800014665566576716676246F0BD002B24DB40
:1041900011D000293EDA00B5C943404200D10131B7
:1041A00000F038F8C943404200D10131DB435242AC
:1041B00000D1013300BD002AEBD1002801D1002934
:1041C00005D00020C90FC90701D1C043410800B57F
:1041D00007F0EEFB0022002300BD00B500290ADB3A
:1041E000DB43524200D1013300F014F8C94340428E
:1041F00000D1013100BDC943404200D10131DB4350
:10420000524200D1013300F005F8DB43524200D1A5
:10421000013300BD002923D1002B18D1002A0CD076
:10422000BC460D4F38667A6600210023FFE7FFE7A2
:10423000FFE77A6F386F67467047002801D007485C
:10424000010000B507F0B4FB0022002300BD02000E
:104250000B00002000217047000000D0FFFFFFFF8F
:10426000002B00D0BFE0130C28D1002AE7D080B487
:10427000114F39667A66FFE7FFE730B4040C7B6FB5
:10428000396F1B0423433B667A66FFE7FFE7FFE7CE
:10429000C04684B27B6F3D6F1B0423433B667A6646
:1042A000FFE7FFE7C04600232C042D0C7A6F386F20
:1042B00000196941B0BC7047000000D0F0B59446C9
:1042C0000025140E01D112020835140F01D112017C
:1042D0000435940F01D192000235D40F01D1520060
:1042E0000135D40B0134254F7C66254C3C660E0C01
:1042F00093B2FFE7FFE7FFE73C6F6643360C7703B7
:10430000BE467343DF0B5B04C01AB941130C734301
:10431000DB18C91ACE086643360CB64493B2734311
:104320001F0F1B01C01AB941130C73431F0B1B0550
:10433000C01AB941860D8F023E436643360C092DE3
:1043400024DB520A7243801A7703460A6643360C0E
:1043500016235B1BDE40DF40BF1964466643821BA9
:104360007046043506330100D940A840C01900D377
:104370000131A24206D20023F0BD0000000000D0AF
:10438000FFFFFFFF121B0130F3D3F1E709277F1B6B
:10439000FE406446A2B27243801A00D20139220C58
:1043A0007243130C1204821A99410B0070460435B3
:1043B00013370100F940A840801900D30131002BC8
:1043C00002D1A2420AD2F0BD013000D30131121B4A
:1043D000FAD2013BF8D1A24200D2F0BD013000D3A5
:1043E0000131121BF7E7F0B51C0C00D080E00CB4D3
:1043F00000251C0A04D11B02160E33431202083595
:104400001C0B04D11B01160F3343120104359C0B06
:1044100004D19B00960F334392000235DC0B02D18E
:1044200092185B4101351C00971864410134464FD6
:104430007C66464C3C660E0CFFE7FFE7FFE7C04694
:104440003C6F6643360C7703BE4697B27743C01B7A
:1044500000D20139C01B00D201399FB27743C91B7A
:10446000C91B170C77437E04FF0B801BB941CE0894
:104470006643360C0C2D33DBB644120B1F053A4352
:104480001B0B97B27743C01B00D201399FB2774311
:10449000C91B170C77433E043F0C801BB941860DA6
:1044A0008F023E43664329277F1BFE400C3D774623
:1044B000AF40BF1930BCA2B2ABB272437343801A93
:1044C0009941220C7243130C1204801A9941020084
:1044D0000B000137001BA941F9D2781E0021F0BD65
:1044E0000C277F1BFE4077467F0BAF40FF19E0E7AC
:1044F00000245D1C07D0144F7D663966FFE7FFE797
:10450000FFE7FFE73C6F95B29EB265436643401BF1
:10451000B141150C1E0C6543664336042F0C3E4317
:104520002D04401BB141994204D202000B0020002F
:104530000021F0BD01D19042F7D3801A9941013496
:104540009942F2D3F6E70000000000D0FFFFFFFF22
:1045500048404140484018B4134B5B68019308BD84
:1045600018B4114B1B68019308BD94460F4A926F13
:10457000920805D2624618B40B4BDB68019308BD64
:104580000A4AF0B5146E556E576F166F6246FFF704
:10459000F2FF064A1466556657671667F0BD18B4F1
:1045A000014B9B68019308BDDC240020000000D073
:1045B000FFB550404240504059404B40594000E008
:1045C000FFB5154F4C00640D03D0BC4204D10C0361
:1045D00014D80020090D09055C00640D03D0BC420D
:1045E00004D11C030AD800221B0D1B0501264B40D9
:1045F00009D44B4003D58B4200D18242FFBD994282
:10460000FCD19042FFBD0B43DB1803431343F5D0AD
:10461000C9434918FFBD0000FF07000000B5FFF7C0
:10462000CFFF804100BDC04600B5FFF7C9FF01D9EB
:10463000002000BD012000BD00B5FFF7B9FF01D982
:10464000002000BD012000BD00B5FFF7B1FF804193
:1046500000BD012040054A00121804D85A00121863
:1046600001D80020704701207047002070470000EB
:104670000021002805D17047C1174840401AFAD0E0
:10468000C90713B5064B1B6898470CBC441CA240D5
:104690001005120B0349091B09051943114310BDED
:1046A000DC2500201F04000010B54C00620D8023A3
:1046B000D218DB00D21A5B057E2A10DD9E3A13DA8F
:1046C000CC170903490819435242D1406400013410
:1046D0001532202A05DAD0400843604310BD00207F
:1046E00010BD0846604310BDC80FC018013810BD8A
:1046F00018B4024B5B6A019308BD0000DC24002063
:1047000018B4024B5B6E019308BD0000DC2400204E
:1047100018B4024BDB6F019308BD0000DC240020BD
:1047200010B50148FEF7C2FBE0CA001070B51323B4
:104730001C78012C14D0012C14DC022C02DC1F4A42
:104740001F4B9A641F48FFF777FC1F4B186070BD22
:1047500099001E481A4A885001331F2BF8D9EAE7FE
:104760000023FAE71A48FFF76FFC05001948FFF726
:104770006BFC023803789B007F2B19DD8022290017
:104780000F4800F0A7FA022CD7D1134B1A88B52393
:104790001B029A4209D1114B1A88114B9A4204D13B
:1047A000104B1A88104B9A42C7D00020FEF77EFBB0
:1047B0000E4B0F4A32210F48FEF7DEFAF947001080
:1047C000DC2400204C330000DC25002021470010B1
:1047D000534400005346000054380000D83800000D
:1047E000494600009C38000059460000F8CA0010F5
:1047F000B0CB00104CCB001007B56046002800D1AC
:1048000000BE01880A0A0230DF2AFAD1C9B2820842
:1048100004D3028840880004104300E00068024A84
:104820005050039007BD0000DC2400205143434357
:10483000C9188C46110C83B24B4310B4040C61436D
:1048400092B280B2504362431C041B0C001910BC8E
:1048500059411304120CC0185141614470470000C3
:104860004840414048400E4B5B6818470C4B1B6862
:1048700018470C4A936F9B0802D2094BDB68184714
:10488000F0B5146E556E576F166FFFF7F6FF054AB9
:104890001466556657671667F0BD014B9B6818474D
:1048A000E0250020000000D007B5484041404840C6
:1048B00001E0C04607B54200120E03D0FF2A03D123
:1048C000420218D8C00DC0054A00120E03D0FF2ABC
:1048D00003D14A020FD8C90DC9050122414005D4B0
:1048E000414001D5814207BD884207BD01434918B7
:1048F00001D0C043001807BD00B5FFF7DBFF01D0B2
:10490000002000BD012000BD00B5FFF7D3FF8041AE
:1049100000BDC04600B5FFF7CDFF01D9002000BDA6
:10492000012000BD00B5FFF7BFFF01D9002000BD89
:10493000012000BD00B5FFF7B7FF804100BD491A57
:10494000002807D108467047C10FC90700D540426B
:10495000002817D0F44603B40B4B1B68984706BCDD
:1049600081409E384042803107D20B0607D0490073
:10497000490AC0051043084360470130F8E7490A77
:104980008902F5E770470000DC25002041000A0E8F
:1049900080231B067E2A0BDD9E3A0BDAC1174002EC
:1049A000400818435242D040490001314843704703
:1049B00000207047C00FC01801387047C0420DD3A7
:1049C00000B540004008002100F00EF8002801D496
:1049D000404200BD8020000600BD0000014BDB69A5
:1049E00018470000E0250020014B5B6A18470000D3
:1049F000E0250020014B1B6B18470000E02500203C
:104A0000034A1047C2179142FAD0024BDB6D184798
:104A100049490010E0250020014BDB6F18470000DA
:104A2000E0250020014B9B6918470000E02500208D
:104A30004100090E862902DA044BDB6B1847044952
:104A400000B500F016F902BC8E46F5E7E02500201F
:104A5000DB0FC9404100090E862902DA044B1B6CAA
:104A60001847044900B500F004F902BC8E46F5E78A
:104A7000E0250020DB0FC940014B9B6D184700006B
:104A8000E025002010B50148FEF710FAB4C7001069
:104A900070B513231E781848FFF7D6FA0500012ECB
:104AA00011D0012E09DDAB1E1B789B007F2B1DDD75
:104AB00080222900114800F00DF91148FFF7BCFAD7
:104AC000104B186070BD542201000C4800F002F930
:104AD000002300E001331F2BE3D89A00074C125942
:104AE000002AF7D19A0008481051F3E7074B084A0B
:104AF00042210848FEF740F953460000E025002017
:104B00004C330000DC250020854A0010C4CB001087
:104B10005CCC0010F8CB0010F0B5C64600B505001F
:104B20000F00161E98461BDDC91101204042FFF7F9
:104B3000D7FA00220EE00C236C1244431D21C91A3F
:104B40000C41013464109D40210079436D1A9A4054
:104B50001219F61A002E05DD0C2EECDC3300EBE703
:104B60000020E6E7BD4201DBED1B0132BD4201DB67
:104B7000ED1B0132002D09DB002D0ADB4346002B23
:104B800000D01A60280080BCB846F0BDED19013A8B
:104B9000F2E7ED19013AF1E7F0B5CE46474680B5A8
:104BA00083B01600C30F9946C30DFF24234045026E
:104BB0006D0A8022120490461543CF0FCA0D14408F
:104BC0004902490A42460A439046002E01D000217C
:104BD0003160FF2B41D0002C42D0002B47D0FF2C5E
:104BE00040D0611E99423DDC23D04A46002A00D0C5
:104BF0006D421A1B01AB41462800FFF78DFF4300B1
:104C0000434503DC07D1019BDB0704D54346C01AAB
:104C1000019B01330193002F02D0019B5B42019362
:104C2000002E01D0019B33609621091BFFF7E2FEA5
:104C300018E0454516DD4B46002B06D1434658008B
:104C4000281A012301930C00E5E743465800401B56
:104C500001235B4201930C00DDE7FF20C00501E06A
:104C6000FF20C00503B0C0BCB946B046F0BD00206F
:104C7000F8E710B50022FFF78FFF10BD70B50400F4
:104C80000A4E300006F0FCFE200005F05BFE050039
:104C9000300006F085FE002D05D02C19044B9C42F7
:104CA00001D8280070BD0348FEF700F9B0150020B8
:104CB0000000042070CC001001480421014B18476B
:104CC000F00C002059400010014B1B6818470000F1
:104CD000F00C0020014B5B6818470000F00C00202E
:104CE00010B50300080011001B68984710BD0000B4
:104CF000F8B507000D001600437D002B02D00024FC
:104D000000200CE003681100280098472DE03B7D4F
:104D100010E0022115483B689847601C0134B442FA
:104D200014DA002CF3DD2B19013B1B780D3B5A42A2
:104D30005341DBB22A5D0A2AF0D1002BEED1A0420A
:104D4000E7DA211A28183B689847E2E7B04203DA0D
:104D5000311A28183B689847002E06DDAD19013D31
:104D60002B780D3B5A4253413B75F8BDF8CC0010EF
:104D700070B505000368002B16D00C4B1C6805E0CD
:104D8000290004C92000FFF7B3FF2469002C09D0D3
:104D90002368002BF9D0064B1B68002BF0D0A342F0
:104DA000F3D1EDE700232B6070BDC046A01D0020AD
:104DB000AC1D002070B505000C000B68802B05D0E1
:104DC00021684B1C23606418257170BD0800FFF733
:104DD000CFFFF5E7F0B583B007000E000092019316
:104DE00028E0A368002B04D0310038009847002841
:104DF00027DC2469002C06D0134B1D68002DF0D051
:104E0000A542F6D1EDE70099019A104B5B6A9A42F0
:104E100009D80E48806A88420FD29A4201D00123F5
:104E200002E0002300E00023002B08D10120002134
:104E3000FDF772F9064B1C68DCE70123F4E701205B
:104E4000404203B0F0BDC046AC1D0020004005400C
:104E5000A01D002010B5FDF73FF902000B1E0BDB73
:104E60000D48002112184B41002B0BDB002B0DDBF2
:104E70000A4806F0DDFD10BD094B0A4A3F210A48E9
:104E8000FDF77AFF01225242084BEFE7044B054A37
:104E90003F210548FDF770FF40420F00B815002084
:104EA00090BA0010E0CC0010ACBA0010FFFFFF7FFA
:104EB00010B5024806F074FD10BDC046B8150020BC
:104EC000F0B5CE46474680B583B006000D0090464B
:104ED0001C00FFF7BFFF81466B1C05D0002C08D0DB
:104EE000194F1A4B1C6807E0300006F0F7F8050070
:104EF000F4E7174FF5E72469002C17D02368002B3F
:104F0000F9D0144B1B68002B01D0A342F3D12A0027
:104F100031002000B8474346002BECD06B46D91D2A
:104F20000A230B7001222000B847E4E74B46002B10
:104F300007D16B1E9D41E8B203B0C0BCB946B04674
:104F4000F0BDFFF7B5FFF4E7E14C0010A01D002015
:104F5000F14C0010AC1D002010B50300080011003A
:104F6000002B05D1044B1A685B68FFF733FF10BDB7
:104F700001204042FBE7C046E0C3001010B503002B
:104F800008001400013B012B06D800230022210059
:104F9000FFF796FF200010BD01204042FBE70120F3
:104FA0004042704701204042704701204042704714
:104FB000094A01E010331A001368002B08D083421D
:104FC000F8D1002907D1036913600023036102E0CF
:104FD000002900D010607047A01D002010B5064BBE
:104FE0001C6801E098472469002C03D06368002BFB
:104FF000F8D1F8E710BDC046A01D002070B505002F
:1050000006F06CF804000023012201002800FFF7DD
:1050100057FFFFF7E3FF200070BD000070B5A2B09E
:1050200004000E00FFF716FF050000230193330074
:10503000220001A90848FEF7E7FF040001A8FFF7D6
:1050400097FEFFF7CBFF002D02D1200022B070BDEC
:10505000FFF72EFFF9E7C046B54D00100FB400B5BD
:1050600083B004A901C90191FFF7D8FF03B008BCC0
:1050700004B0184710B500F0FBF800F043FA012027
:1050800010BD0000F0B583B005000E0000240FE055
:105090006B46D91D0D230B700020002816D1936993
:1050A0009B06FCD40B78136001300131F5E7013425
:1050B000B44219DA0D4B1A682F5D0D4BD3185942C3
:1050C0004B415B000B495B5EBB42E1D06B46D91D97
:1050D0000F7000200028EAD193699B06FCD40B785E
:1050E000136001300131F5E703B0F0BD0027002067
:1050F0000080FCBFFC260020F0B583B006000F0046
:10510000002504E06B4607331B782B702500BD4259
:1051100015DA174B1A6893691024210019401C42B4
:105120000DD16C1C75196B46D81D0029EAD1936905
:10513000DB06FCD41368037001310130F5E70D4B39
:105140001B68002B0CD00A4B1A6850239363110084
:105150003431536B38221A4080235B010B431A60B1
:10516000002D02D0280003B0F0BD033DFAE7C04691
:1051700000270020F81C002010B5064B1B68002BF0
:1051800006D0054A126800219163044A10689847C6
:1051900010BDC046F81C002000270020001D002084
:1051A00070B504000E001C4B1B681C4A9818424244
:1051B000504114300500002C03D0194A1268002A0F
:1051C00006D0002C19D0164B1C60164B1E6070BD0B
:1051D0001549FBF797FE01212800FBF769FE0E4BEE
:1051E0001A685023936311003431536B38221A40EC
:1051F00080235B010B431A60E5E7094A1268002A25
:10520000E1D000229A6300212800FBF751FE0649F5
:105210002800FBF7BBFFD6E7002700200080FCBF7B
:10522000F81C0020001D00207951001070B50D0001
:105230001C000D4B1860002A0BDA002C0EDA0A4B0A
:1052400018682900FDF716FB01210848FFF7B0FE9A
:1052500070BD02211000FBF733FCEEE702212000B5
:10526000FBF72EFCEBE7C04600270020000D0020D6
:1052700010B5064B1B78064B1B78E1210123002259
:1052800049020448FFF7D2FF10BDC04664E3001096
:1052900068E300100040034070470000014B00220B
:1052A0001A707047D12702204B79FF2B0CD18B79D4
:1052B000002B0BD1CB79012B0AD1082A0AD98A7885
:1052C000054B1A70092000E0002070470020FCE721
:1052D0000020FAE70020F8E7D127022001207047DC
:1052E00070B504000D000348FEF7A6FE0300290078
:1052F000200098475542000010B5012926D11179A8
:1053000053791B020B43124909788B4201D00020CC
:105310001DE05378012B03D0022B10D0002016E0A3
:105320009178D3781B021943DB0506D54B0A01207F
:1053300098407F231940FFF7D3FF0020F9E764224C
:1053400000210020FDF7BEFC012000E0012010BD7F
:10535000D127022001230370004870473CCD001084
:1053600010B50B784878000218438A78120410436D
:10537000CB781B0603439622D200934200D010BD87
:1053800000210800FFF7ACFF024B1860024B1960C8
:105390007047C046FC1C0020041D002010B5024BC5
:1053A0001878FBF78DFD10BDD227022070B5134B86
:1053B0001B68002B1DD0114B1968EFF3108372B6D8
:1053C0000A68002AFCD0BFF35F8F0C494B600022B3
:1053D0000B4802700968BFF35F8F0A6083F310887F
:1053E00000240025074B1878FBF76AFD20002900F0
:1053F00070BDFA24A4000025F4E7C0462022002056
:10540000D3270220D227022010B584B000212D48D6
:1054100006F0F6FA00283AD12B4B1B68002B3ED041
:10542000294B1968EFF3108272B60B68002BFCD081
:10543000BFF35F8F24494A60244803780124634006
:10544000DBB2012404700968BFF35F8F002008609D
:1054500082F31088002B22D0FCF79EFB0400FCF79F
:105460003BFE02000B1E1CDBFA20800000211218FC
:105470004B41002B1BDB002B1DDB01210291002186
:105480000191134900912000FCF79CFB07E00120EB
:105490000021404201F0F0F80A4806F081FA04B019
:1054A00010BD0C4B0C4A3F210C48FDF765FC012256
:1054B00052420B4BDFE7074B074A3F210748FDF7F6
:1054C0005BFCC046E426002020220020D3270220D7
:1054D000AD53001090BA0010E8CD0010ACBA001027
:1054E000FFFFFF7F10B5054B1868002804D0044B60
:1054F0001968002200F0E6FD10BDC046FC1C00202B
:10550000041D002010B584B0D0231B061C68FCF7D6
:1055100043FBFCF787FCA0422AD1324B1B7801F0F9
:1055200093FD3148FBF7AAFF0120FBF78BFFC0B2C8
:105530002E4C20702E49FBF7E5FC20780121FBF76B
:10554000B7FC0520FBF7CCFC041E17D0002229492C
:105550000520FBF701FDFBF719FC01002648FBF7CE
:10556000ABFF01212548FFF723FD200004B010BD4B
:10557000234B244AB2212448FDF7FEFBFCF70CFB29
:105580000400FCF7A9FD02000B1E1BDBFA208000C3
:10559000002112184B41002B1ADB002B1CDB0121D0
:1055A000029100210191194900912000FCF70AFBAA
:1055B000C443E40F082200210F48FFF785FB002CAD
:1055C000D3D0CEE7124B134A3F211348FDF7D4FB4B
:1055D00001225242114BE0E70D4B0E4A3F210E488B
:1055E000FDF7CAFB6CE30010E4260020D22702205E
:1055F000095400109D53001020220020180D002097
:105600008CBE0010D8CD001054CD0010AD5300104A
:1056100090BA0010E8CD0010ACBA0010FFFFFF7F79
:1056200010B5002001F030FA10BD000070B5050083
:105630000C00FFF7F5FF002845D0002001F046FAE6
:10564000002843D0FCF748FD02000B1E21DB224856
:10565000002112184B41002B21DB002B23DB1F48BC
:1056600006F0E6F9002834D0FFF7DAFF002804D06E
:10567000002001F02BFA00281BD10120002140421C
:1056800000F0FAFF03246442144806F089F9200070
:1056900070BD134B134A3F211348FDF76DFB0122E8
:1056A0005242124BD9E70E4B0E4A3F210E48FDF7EE
:1056B00063FB22002900002001F014FA041EE3D14C
:1056C00003246442E0E703246442E0E703246442E5
:1056D000DDE703246442DAE740420F00E4260020BD
:1056E00090BA0010E8CD0010ACBA0010FFFFFF7FA9
:1056F000F0B5C64600B580460C00FCF7EDFC020094
:105700000B1E0FDB3748002112184B41002B0FDB1B
:10571000002B11DB344806F08BF9002812D180BC35
:10572000B846F0BD314B324A3F213248FDF724FBE9
:1057300001225242304BEBE72C4B2D4A3F212D48A2
:10574000FDF71AFBFFF76CFF002849D12B4B002017
:10575000002118605960244806F022F9DFE7012093
:105760000021404200F088FF002001F0CFF9FFF750
:1057700057FF0028EFD0002001F040FA002820D089
:10578000A542E8DA661B002001F038FA02008642E2
:1057900000DC3200002AE2D043465919002001F013
:1057A00011FA060001200021404200F065FF0020B0
:1057B00001F0ACF9AD19FCF78FFC104B1860596083
:1057C000DEE7FCF789FC0D4B1E685F680C4A00237E
:1057D00092197B419942BED8D2D19042D0D9BAE732
:1057E0000025CDE740420F00E426002090BA0010CB
:1057F000E8CD0010ACBA0010FFFFFF7FE0160020DC
:1058000020A107000048704780CE00100048704774
:105810002CCE001010B50400154B1B78002B0ED0B9
:10582000002C11D1134B144A5A80012301335B0021
:105830001BB2C022920013430E48038010BD1121F9
:105840000B4800F025F8EBE7052C0ED8A4000B4B15
:10585000E4580023122BE9D8E25C002AE6D0013399
:10586000590004484252DBB2F4E70020E6E7C046A4
:1058700004270220741D00200904000094CE0010AB
:1058800010B5024800F034F810BDC046D424002002
:1058900010B5002901D000230AE0114B114A1F3135
:1058A0001148FDF769FA00240DE03732C254013384
:1058B0004A1E9A420FD90F2B0DD85A080B4CA25CE6
:1058C000DC07F0D40424224114000F222240092ACC
:1058D000EBDC3032EAE7C0180023037010BDC0468D
:1058E000ACCE001018CF0010B4CE0010D42400208D
:1058F00070B588B0040004AD00260496092200218A
:1059000005A8FFF7E1F900960922002101A8FFF799
:10591000DBF94B232B700D226946280006F038F87E
:10592000002304E05A1D69468A5CE2540133072BC8
:10593000F8DD08B070BD000002007F201040D209E1
:10594000400080184001014BC0187047181E00200D
:1059500010B5038B3F333F229343022915D0124CDD
:105960002268C260D31823609C0610D10F4C62409D
:10597000634080246401A3420FD889061143802329
:105980001B0619434368196010BD5B00E7E7084B2D
:10599000084A54210848FDF7EFF9084B054A5621FB
:1059A0000548FDF7E9F9C0461C2200200000105010
:1059B000C0D00010F4D10010F0D0001060D1001061
:1059C000F8B505000E001400FFF7B6FF7F232B404B
:1059D000EF0985707A427A4142700022C2700683D4
:1059E000C476012F0DD0DA0012498C4662448260E1
:1059F000826800211160002B09D143600E4BC36007
:105A0000F8BDDA000D498C4662448260F0E7012F50
:105A100009D0013BDB000A4A9446634443602100FD
:105A2000FFF796FFECE7013BDB00064A9446634430
:105A30004360F4E7840010500001105080001050C3
:105A40000C0010500800105070B50C001500FFF746
:105A500073FF2A00210000F00DF970BD10B5002879
:105A600004D101210520FBF723FA10BDD521034BFA
:105A7000034A49000348FDF77FF9C046A8D100104A
:105A8000E4D10010F0D0001010B5002805D100229C
:105A900000218020FFF7D8FF10BDDB21024B034A15
:105AA00049000348FDF768F9A8D10010D4D10010CF
:105AB000F0D00010024B80225202DA647047C046D8
:105AC0000020115070B5041E26D100F0ADF8164D1F
:105AD0000C23AB67FF2215490520FBF73DFA402256
