:020000041000EA
:1000000000B5324B212058609868022188439860DF
:10001000D860186158612E4B002199600221596106
:100020000121F02299502B49196001219960352056
:1000300000F044F80222904214D00621196600F024
:1000400034F8196E01211966002018661A6600F04E
:100050002CF8196E196E196E052000F02FF8012189
:100060000842F9D1002199601B49196000215960AB
:100070001A491B48016001219960EB211966A021F2
:10008000196600F012F800219960164914480160C1
:100090000121996001BC002800D000471248134993
:1000A000086003C880F30888084703B5996A0420EC
:1000B0000142FBD001200142F8D103BD02B5186610
:1000C0001866FFF7F2FF186E186E02BD00000240BE
:1000D000000000180000070000035F00212200005C
:1000E000F4000018222000A00001001008ED00E03C
:1000F00000000000000000000000000074B24E7A12
:1001000000200420F7010010C3010010C5010010F9
:10011000C1010010C1010010C1010010C101001097
:10012000C1010010C1010010C1010010C701001081
:10013000C1010010C1010010C9010010CB01001065
:10014000CD010010CD010010CD010010CD01001037
:10015000CD010010CD010010CD010010CD01001027
:10016000CD010010CD010010CD010010CD01001017
:10017000CD010010CD010010CD010010CD01001007
:10018000CD010010CD010010CD010010CD010010F7
:10019000CD010010CD010010CD010010CD010010E7
:1001A000CD010010CD010010CD010010CD010010D7
:1001B000CD010010CD010010CD010010CD010010C7
:1001C00000BE00BE00BE00BE00BE00BEEFF3058054
:1001D000103800BEF2EB8871CCC20510F4C20510D5
:1001E0003402001090A31AE700201F49086006C8D7
:1001F00081F3088810471D48006800282FD10DA4FE
:100200000ECC002902D000F012F8F9E71849194A7B
:10021000002000E001C19142FCD1174988471749ED
:1002200088471749884700BEFDE701C901C29A42C5
:10023000FBD37047F4C20510C00000201C1600203C
:1002400050D80510000004200000042050D80510EC
:10025000001004200010042000000000704709482E
:1002600004F0CEF80047000008ED00E0000000D0E8
:1002700040160020D0E3022041310010610C001034
:10028000FD3000105756000006005250ABB36053CB
:10029000B0DF011006005250861C0302C0DF0110BF
:1002A000060052505422A29DC8DF01100500525092
:1002B000DE65F46850D80510F8B5C04610B5064C98
:1002C0002378002B07D1054B002B02D0044800E017
:1002D00000BF0123237010BDD817002000000000CC
:1002E00000CA0110044B10B5002B03D00349044889
:1002F00000E000BF10BDC04600000000DC17002079
:1003000000CA01107047000010B5111E03D1044847
:1003100005F062F810BD034805F08EF8FAE7C04614
:1003200000CA011014CA011010B5074B1868002844
:1003300005D017F0D1F8002803D0012000E00020FC
:1003400010BD0020FCE7C046C82D002030B585B0A8
:1003500005000C00FFF7E8FF002828D0154B1868AF
:10036000002803D00121494218F0B6F915F00AFE21
:1003700020001BF031FE83B20F4A10680022039266
:100380000E490291019200922200290016F026FEE9
:10039000040015F001FE074B1868002804D0002364
:1003A0000022002117F0E0FE200005B030BD0B2434
:1003B0006442F9E7CC2D0020C82D00200503001071
:1003C00070B504000B4D29000B4805F035F82300EB
:1003D0000A4A0B49280012F049F8011E04D10948C5
:1003E00004F0FAFF012070BD074805F025F8002051
:1003F000F9E7C04634CA01103CCA011004004000AD
:1004000060CA011094CA01106CCA011010B58AB0FC
:100410001C4B1B68002B26D01A4B1C68002C27D0C5
:100420001C22002103A804F02FFE174B03931E2368
:100430006A46138303AB019300230093134B144AC2
:100440001449200016F07CFE011E16D1FA2040004F
:1004500018F0D2FF0B4B186817F03EF8431E984176
:10046000C0B20AB010BD16F063FE064B1860D3E7A9
:10047000094804F0B1FF0020F3E7084804F0DCFF6E
:100480000020EEE7C82D0020D4CA01100903001097
:100490005B070000C42D0020B8CA0110E0CA01109B
:1004A00010B512F057F8002806D100211C4815F0AD
:1004B00080F811F007FF0AE01A4804F08DFF0020D1
:1004C00018F014FD10BDFA20C00018F095FF164872
:1004D000FFF776FF0028F6D0144C200011F062F9E7
:1004E000134B1860134A2100134804F0A5FF12E0D3
:1004F000124804F071FFFFF789FF0121002011F07D
:1005000001FFFA2018F078FF0021002011F0FAFE18
:100510000B4818F071FFFFF707FF0028E8D0ECE761
:10052000E81E0020F8CA0110204E000010CB011078
:10053000C42D00205B0700001CCB011030CB011044
:10054000EE020000F0B5DE4657464E464546E0B5A1
:10055000F9B0644B7193E1235B027293022314AAF6
:10056000BE21490052181370013314AA7E21FF31B5
:1005700052181370002376937593749371A81AF030
:100580001BFF002829D0584804F026FF1AF080FEEF
:100590001AF082FBFF230093AF3BFF225021534808
:1005A00004F04AFF524D6895524C699400206A90BD
:1005B0006B906C906D9050496E91504A6F92504B79
:1005C00070935F9560946190629063906490659180
:1005D000669267930025061C2EE04A4804F0FCFE54
:1005E000002018F083FCCEE74749201C04F012FBE2
:1005F000041C0021201C04F05BFB0028F4D104E063
:100600004149201C04F003FB041C3F49201C04F05A
:100610005DFB0028F4D13749301C04F012FB061CA6
:100620003A49201C04F00DFB311C04F0F3FA061CBF
:100630000A2018F0E1FE0135132D07DC71A81BF02C
:1006400059F8334904F0E6FA041CD2E72D96301C21
:1006500004F0C2FB02000B002E4804F0EDFE18F07F
:10066000F5FC5E901E9600231F9350221C921D9253
:100670001B931E1C9AE22449281C04F0CBFA051C8B
:100680000021281C04F014FB0028F4D104E01E49CA
:10069000281C04F0BCFA051C1B49281C04F016FB9E
:1006A0000028F4D113491E9804F0CBFA041C174912
:1006B000281C04F0C6FA011C201C04F0ABFA011C33
:1006C0001E902D9804F0A3FA041C04E00E49201C8F
:1006D00004F09DFA041C1049201C04F0FFFA0028C5
:1006E000F4D120E0A00D002060CB011070CB0110F0
:1006F0000000C040CDCC4C3F00007F43000096C3BB
:100700000000964348CB01100000B443CDCC4C3ED2
:100710000000A041A8CB011000003443CD49201CAB
:1007200004F078FA041CCC49201C04F0C1FA00281B
:10073000F4D1600040088021C90504F0B9FA00280E
:1007400000D00024311C201C04F061FAC34904F0DD
:1007500064FA071CC249201C04F073FA002104F05B
:1007600059FA061CBF49381C04F06BFA011C301CF6
:1007700004F050FABC4904F064FABC4904F061FA90
:100780002390BB4904F05DFABA4904F05AFA061CFA
:10079000011CB94804F03BFA2090B749301C04F022
:1007A00039FA21901AF05CFA061C1AF061FA8346B5
:1007B0000021301C04F07CFA002800D0FEE1AF4B91
:1007C0001E600021584604F073FA002800D0F8E1BA
:1007D000AB4B5A461A605946301C04F01BFAFC21F8
:1007E000890504F02EFA2C909C4904F02AFA011C89
:1007F0001F9804F00FFA1F90311C209804F007FA9C
:10080000071C964904F01DFA6B9904F003FA804620
:100810006B906F9B9946709B9A46494604F048FA44
:10082000002807D15146404604F058FA002800D06D
:10083000CBE1C1464B466B936C9B2293191C381C31
:1008400004F0E5F9854904F0E8F980466C97689969
:10085000381C04F0F6F9071C699B2293191C4846C2
:1008600004F0EFF9011C381C04F0D4F9071C6A9B52
:100870002293191C404604F0E4F9011C381C04F0D2
:10088000C9F9071C6D9B9A466E9B9846514604F029
:100890000FFA002807D14146381C04F01FFA00283F
:1008A00000D094E1BA465946219804F0B0F9071CEB
:1008B0006A4904F0C6F9629904F0ACF98046629086
:1008C000669B9946679B2293494604F0F1F90028FC
:1008D00007D12299404604F001FA002800D078E1BF
:1008E000C1464B466293639B2293191C381C04F04B
:1008F0008EF95A4904F091F9804663975F99381C44
:1009000004F09FF9071C609B2293191C484604F0D1
:1009100098F9011C381C04F07DF9071C619B229397
:10092000191C404604F08DF9011C381C04F072F9C2
:10093000071C649B9946659B9846494604F0B8F9A4
:10094000002807D14146381C04F0C8F9002800D01F
:1009500042E1B946311C584604F059F922903F490A
:1009600004F06FF9011C1B9804F054F9071C1B904C
:10097000444904F09DF9002800D02FE14249381C79
:1009800004F0ACF9002800D02BE14049229804F093
:1009900058F9071C32491B9804F053F9011C381C04
:1009A00004F038F980463A49504604F033F9802182
:1009B000C90504F02CF9414604F02CF91BF0C8FFDE
:1009C00007003349484604F025F98221C90504F09F
:1009D00021F9414604F01BF91BF0BAFF4F2F00DC50
:1009E00002E1FF2F00DD01E14F2800DC00E1FF28DC
:1009F00000DDFFE01D997A1A1C9BC31A062A00DD50
:100A00008F1D063200DBF7E01D9A063A1D92062B79
:100A100001DD1C9A901D063300DBEFE01C9B063BBA
:100A20001C931C9B9A46180004F062F981461D9F96
:100A3000380004F05DF949461AF092FA154B18682F
:100A4000421C1A60142103F007FD002900D0A8E021
:100A500022E0C0460000B443000034C30AD7233C60
:100A60009A99993EEC51383E35FA8E3C0AD7A33C10
:100A70001F856B3D0000C8420000A04188E20220B3
:100A80008CE20220000048C2000048429A99993F37
:100A90000000A042282900201E9804F09DF924900F
:100AA0002591281C04F098F926902791301C04F019
:100AB00093F928902991584604F08EF92A902B91A9
:100AC0001F9804F089F905000E00534619931897F2
:100AD000404604F081F9169017911B9804F07CF9B8
:100AE00014901591229804F077F9129013911095B3
:100AF00011962A992B9A0E910F92219804F06CF975
:100B00000C900D912899299A0A910B92209804F043
:100B100063F9089009910022444B069207932398A9
:100B200004F05AF904900591201C04F055F9029044
:100B300003912699279A00910192249A259B3C487B
:100B400004F07AFCFFF7F0FB00282AD001F08AFCC1
:100B5000002955DB5AD0FA229200002303F0E2FC70
:100B60000700249A259B0A920B93269A279B0892AA
:100B70000993069507962C9804F02EF90490059198
:100B80002A9A2B9B02920393289A299B0092019305
:100B90003B00284AC0212EA803F000FC0138BE28E3
:100BA0003AD90A215EA818F0CBFB261C71A81AF0CE
:100BB000A1FD214904F02EF8051C61E51F4B1E68BC
:100BC000FFE51F4B1B689B4605E6D14632E6C24651
:100BD00069E6229B994684E6C146BBE6194B1B9306
:100BE000D3E6194B1B93D0E65027FDE6FF27FBE623
:100BF0005020FFE6FF20FDE61D9708E71C9010E758
:100C0000124B134A3F21134802F07CFAFA21890063
:100C100003F04AFC0700A4E72EA90F48FFF796FB54
:100C2000011EBED00D4804F007FCBAE700003440B6
:100C3000D8CB0110F0CC01100000A04188E20220C6
:100C40008CE20220000048C20000484270CC011033
:100C5000F8CD01108CCC011040CD011058CD011001
:100C600010B58AB004F0F4FB244B1B68986800238D
:100C7000022200211BF0D2F8C820800001F03EFBC8
:100C80000022002308920993A02000061C49069028
:100C9000079100201B4904900591802000061A4905
:100CA00002900391009201938022D205174B1848BD
:100CB00004F0C2FB012017F02BFB164B18608022BA
:100CC0000024019403230093002352011249134886
:100CD00018F0C6F880220194022300930023120129
:100CE0000F49104818F0BCF818F074F90E4804F0D9
:100CF00073FBFA20800001F001FBF7E7B40D002040
:100D00009999E93F000018403D0AC73F3333D33F6C
:100D100070CD0110CC2D0020D4CD0110A104001005
:100D2000D8CD011045050010E4CD011010B58300A9
:100D3000084A944663441C6840226240C024144020
:100D40008022520113431C60C000034B9C46604448
:100D5000416010BD04C001400040014080000B4BC9
:100D60009C46604400290DD00823002A0CD00422A0
:100D70001343026853400C22134080225201104357
:100D8000036070470023F0E70022F1E704C0014050
:100D9000002909D08000094B9C46604480239B01B8
:100DA00018430223036070478000044B9C46604454
:100DB000C0239B01184302230360F4E704C00140F1
:100DC00070B50400D0231B061D68AA000C4BD35835
:100DD000002B0AD0002803D0AD00094BEC5070BDA9
:100DE00008490D2000F084FBF6E70028F7D0AD009D
:100DF000034BE850002203490D2000F05FFAEEE7B4
:100E0000941E00201D0F001070B5D0231B061B6818
:100E10009D00094C2C59204207D19B002043064CD1
:100E200018510D2000F04AFA70BD044B044ACC2141
:100E3000044802F067F9C046D8DF002010CE011048
:100E4000E8CE01103CCE011010B50400D0231B06E3
:100E50001B689B000A4A9B5818420BD00D2000F0DB
:100E600047FBD0231B061B6805499B005A58A24329
:100E70005A5010BD034B044AD621044802F042F9EF
:100E8000D8DF002098CE0110C4CE01103CCE011056
:100E9000072303409B00C00899403C308000014B71
:100EA000C150704700400140F8B507000C00160023
:100EB0001D00FFF7EDFFFB089B00ED1807203840F1
:100EC00080008440002E04D080239B011D432C60B1
:100ED000F8BDC0239B011D432C60F9E710B5D0235A
:100EE0001B061B68002B03D0024BFFF7DDFF10BD74
:100EF000014BFAE7304101400041014070B5140058
:100F00001D00FFF7EBFF2800FFF75AFF002C00D170
:100F100070BD01210D2000F07DF9F9E7F0B5D6464E
:100F20004F464646C0B5D0231B061F68BA001D4B6E
:100F3000D3589846002F03D01B4B9946002623E038
:100F40001A4B9946FAE724090135002C1BD03300CF
:100F50000833AB4217D90F231A002240924623428E
:100F6000F1D0BB00124A9A580123AB401342EAD198
:100F700051462800FFF78CFF4346002BE3D0514633
:100F80002800C047DFE708361D2E06D8F3080833CF
:100F90009B004A469C583500D7E7E0BCBA46B146AC
:100FA000A846F0BD941E00203041014000410140A0
:100FB000D8DF002010B501238340D02212069362AF
:100FC00093610521FFF7B2FE10BD0000034B1B68C3
:100FD00002201840431E9841C0B2704700C006402E
:100FE000EFF3108072B6034B1B68002BFBD0BFF3EE
:100FF0005F8F70472C0100D0BFF35F8F024B002240
:101000001A6080F3108870472C0100D0F8B50600F4
:101010000C001500FFF7E4FFE308F718F15C072266
:101020002240012393400B4205D1DBB20B433B70BE
:10103000FFF7E2FFF8BD2100280002F0FDF8F0B54F
:1010400083B00600019114001F00FFF7C9FF00E004
:101050000134BC420CD8E308F518F35C07212140A9
:1010600001228A401A42F3D1D2B21A432A7001E017
:1010700001246442FFF7C0FF002C02DB200003B014
:10108000F0BD019B002BF9D0089802F0D5F80000C4
:1010900070B505000C00FFF7A3FFE308EE18EA5C4B
:1010A00007210C400123A340134204D09A4332701D
:1010B000FFF7A2FF70BD034B034A2C31034802F037
:1010C00021F8C0461CCF01109CCF01103CCF01106D
:1010D000002307E0054A9A189200BFF35F8F0021B2
:1010E000116001331F2BF5D97047C0464000003412
:1010F000054A1078431CDBB21370172B02D913007A
:1011000010221A707047C046600C002000B583B0F2
:101110000100044B00931F2318220348FFF78FFFA1
:1011200003B000BDACCF0110AC1E0020074B9B6884
:10113000103080001950BFF35F8FBFF35F8F044BF7
:101140000021196082F310887047C04600ED00E06E
:10115000240100D010B5091A081F0A4B9C466144AF
:10116000094A914208D8C30706D440104005400DF3
:10117000064B184380B210BD054B064AA321064812
:1011800001F0C0FFFC070000FE0F000000E0FFFFC1
:10119000C8CF01104CD20110F8CF011010B5091AB8
:1011A00004394C08090B08D14905490D064A114379
:1011B0000180064B2343438010BD054B054AAB21FC
:1011C000054801F09FFFC04600F0FFFF00F8FFFF59
:1011D00054D0011020D20110F8CF01100123834018
:1011E000034A10681840431E9841C0B27047C04679
:1011F00000E100E0002904D0034B1860034B1860A5
:101200007047034B1860FBE780E200E000E100E07C
:1012100080E100E010B5012383401800FFF7EAFFEA
:1012200010BD000001238340014A13607047C0468F
:1012300000E200E0024B9B6810308000C05870470D
:1012400000ED00E010B5FFF7F5FF002805D0054BD5
:10125000C01A2F2803D8012010BD0020FCE7002071
:10126000FAE7C046640C002070B504000D00EFF3EF
:10127000108672B60C4B1B68002BFBD0BFF35F8F40
:101280002000FFF7D7FF094B984201D0A84205D1B3
:10129000320029002000FFF749FF70BD044B054ACA
:1012A0008621054801F02EFF240100D0CD01001059
:1012B00064D0011080D20110F8CF0110F0B5DE46E5
:1012C00057464E464546E0B589B081460191150026
:1012D000EFF3108A72B6744B1B68002BFBD0BFF380
:1012E0005F8F724B0027DF57002F40DB7C00E41933
:1012F000A4006F4824180622A2566C4B1A706D4B3E
:101300009A684B4610339B00D35898461E001B1A10
:101310002F2B38D9684B98452FD105AE674B3380BA
:101320007B009B46D8198000614B984640440230B0
:101330006349FFF70FFF7080624BB380FF23B371E7
:10134000F571019B07935F44BF0047440ECE0EC763
:1013500001231C43A046524641464846FFF7E6FE9D
:1013600009B0F0BCBB46B246A946A046F0BD564BFC
:10137000564AD721564801F0C5FE564B534ADE2146
:10138000534801F0BFFEC04340440C2103F08CF8E9
:10139000002912D101239E43B34633000026DA7997
:1013A000AA4211D90621595600290CDB4A005218CD
:1013B00092001E003E4B9B18F1E7474B434AEA213F
:1013C000434801F09FFE1E00002E3AD005AB434A71
:1013D0001A80813A5A800623F3560293002B17DABB
:1013E0003F4805AB9B469880029A9A71DD71019A3D
:1013F0000792301D2100FFF7ADFEB080B7717B0072
:10140000DB199B002A4FFF185B4607CB07C7A2E7F3
:101410007800C0198000264BC0180430321DB388F4
:10142000D90A1C2907D15B05591502314900511809
:10143000FFF790FED5E72B4B2B4AB121244801F052
:1014400061FE05AE1D4B33807B000293D8198000EE
:10145000174A9046020042440392901C1849FFF735
:1014600079FE7080039A101D5946FFF773FEB08015
:101470001E4B5A464146521A524153431B0DB371FB
:10148000F571019A0792029B9C466744BF0047444E
:101490000ECE0EC7114B5A461380813B5380012359
:1014A0001C43A04657E7C046240100D0C1E30220F8
:1014B000640C002000ED00E0CD01001000A1FFFF52
:1014C000940C002001BDFFFF9CD0011068D20110D8
:1014D000F8CF0110C4D00110ECD001100148000079
:1014E00001BD000060D1011058D20110AAAA00006D
:1014F000F0B5CE46474680B583B006000D00EFF349
:10150000108872B6564B1B68002BFBD0BFF35F8F61
:10151000544B9A6834001034A300D758524B9F4262
:1015200007D0AF4200D198E00197504BFB1A2F2B08
:1015300009D9424639003000FFF7F8FD03B0C0BCBE
:10154000B946B046F0BD3000FFF748FE81460021A5
:101550003000FFF75FFEBFF35F8FEFF305810029D7
:1015600001D08C4211D10123019C9C430022A3682D
:10157000AB4212D00622A256002A0DDB53009B1864
:101580009B002200394CE418F1E73621384B394AE8
:10159000FF31394801F0B6FD2200AB4256D1062595
:1015A0006557002D38DB6B005B199A002F4B9B1899
:1015B0009A68A260DA79E27106229A56A2719B7942
:1015C0005BB2002B0FDA2D48A0806B005B199B00EB
:1015D000264AD3182A4A1178997115704946300065
:1015E000FFF718FEA5E7201D6B005B199B001F4A43
:1015F0009B181A1D9B88D90A1C2907D15B055B150E
:10160000023359005118FFF7A5FDDDE71D4B1E4AB7
:10161000B121194801F076FD002912D1002A0ED01F
:10162000FF239371194B9380154A1378A371184BBC
:101630000E49641A644163431B0D1370CEE70A4FD1
:10164000F2E7201D1349FFF7A9FDC7E76A21124BF6
:10165000084AFF31084801F055FD034F69E7C046CD
:10166000240100D000ED00E0CD010010640C00204A
:1016700078D1011038D20110F8CF011001BD00005F
:10168000C1E3022060D1011058D2011001BDFFFF5B
:10169000AAAA00009E0C0020ACD1011010B50323B3
:1016A00004009C43064A9446644422681840C000E3
:1016B000FC3383409A43130081400B43236010BDE9
:1016C00000E400E070B5012101432E4BCB1A2F2B13
:1016D00028D8EFF30583002B2BD0EFF3108C72B6D4
:1016E000294A1268002AFBD0BFF35F8F274A040003
:1016F000244D641B64416243120D54B2244A926823
:101700009B00D2588A421BD00022032A32D85300B1
:101710009B189B001B49CB189B795BB2A3421FD03F
:101720000132F2E7C7211B4B1B4A49001B4801F05D
:10173000E9FC92211A4B184AFF31184801F0E2FCEB
:10174000134A92681749D150174B1A7882711C704E
:10175000BFF35F8F0C4B00221A608CF3108870BDB2
:101760000D005300991889006918FF268E710F4AE1
:101770008A80E9E7D1210E4B074A4900074801F06A
:10178000C1FCC046640C0020240100D0AAAA0000BD
:1017900000ED00E0B4D1011004D20110F8CF011027
:1017A000DCD10110CD010010C1E3022001BDFFFF1B
:1017B000E01302100022044B02E0044902C301328C
:1017C000072AFAD97047C04600E400E08080808094
:1017D00000B583B00100064B0093052300220548A5
:1017E000FFF72DFC002801DB1F23181A03B000BDF2
:1017F000E8D10110CEE30220024B9C4661448900EF
:10180000016070474000003410B50400FFF770FC21
:1018100001002000FFF7F0FF01235B426360BFF38C
:101820005F8F10BD10B50400FFF762FC01002000BF
:10183000FFF7E2FF01235B42636000232372BFF3E3
:101840005F8F10BD034B9C46614489000160BFF36C
:101850005F8F70474000003410B504000120FFF78F
:1018600055FC01002000FFF7EDFF10BD70B505002D
:101870000C00080000F0F6FE0949200000F036FEDA
:10188000FFF736FC074B9C466044800068602C756F
:10189000D0231B061B786B75A400034BE55070BD6D
:1018A000A91B00104000003470CD002010B5084B7B
:1018B0001A68EFF3108172B61368002BFCD0BFF3E7
:1018C0005F8F034816F010F80020002110BDC046BD
:1018D000FCE1002010B5002922D003681B7B99424F
:1018E0001ED8174B9C466144090183689C4661449D
:1018F0000C684968002A19D003681B7B9A4215D8E6
:1019000083680F488446624412019A18106853682D
:10191000020001208B4201D80ED00020C0B210BDC1
:10192000084B094A3C21094801F0ECFB054B064AEB
:101930003C21064801F0E6FBA242EFD8EDE7C046A5
:10194000FFFFFF0FE8D3011068D6011094D30110F8
:1019500010B500291ED0037B99421BD84B005B18A1
:10196000033B0468A4466344002919D0002A1DD013
:10197000914221D0002A25D0047BA24222D80468BB
:1019800050008018033820188170197800291FD161
:101990001A7010BD104B114A6821114801F0B2FBBA
:1019A000104B114A6F310E4801F0ACFB0F4B0E4A41
:1019B00070210B4801F0A6FB0D4B0B4A7121084822
:1019C00001F0A0FB044B054A6821054801F09AFB91
:1019D00041701A70DDE7C0460CD40110D4D6011056
:1019E00028D4011090D40110B0D601109CD401105D
:1019F000A8D4011070B506000D001400002914D001
:101A0000002A14D0806873689847002806D0220006
:101A100029003000FFF79CFF280007E02A00210082
:101A20003000FFF795FF200000E0100070BD0800B7
:101A3000FCE70000F0B583B00500009201930AAB0B
:101A40001C780BAB1F78002C26D003685A7B94427D
:101A500007D10123002B19D1002C3BD1200003B06A
:101A6000F0BD002C0CD01A7B944209D81A68630090
:101A70001B19033BD3189B78002BEBD00123E9E71C
:101A80003E4B3F4A68213F4801F03CFB3E4B3F4AFA
:101A900067213F4801F036FB03689C7B002CDBD0BC
:101AA00012D01A7B94420FD862001219033A1968B7
:101AB0008C46624451789973002900D1D973002370
:101AC000937053701370C7E72C4B2D4A68212D4833
:101AD00001F018FB002C3AD02B681B7B9C4236D8B7
:101AE0002C4BE3181B01AA6894466344009A1A60C1
:101AF000019A5A60089A9A60099ADA602E68002C56
:101B00002BD030D0337B9C422DD863001B19033B74
:101B100032689446634400229A705A701A70717B3E
:101B200022003000FFF766FF7073844200D095E713
:101B3000287D009A019B00F021FD061E01D0002F98
:101B400017D00C9B002B00D188E71E7086E7124B44
:101B5000124A3C210E4801F0D5FA114B114AA52139
:101B6000084801F0CFFA054B054A6821054801F005
:101B7000C9FA2868210000F039FFE2E70CD401100F
:101B8000D4D6011028D40110C0D40110E0D6011021
:101B900094D30110FFFFFF0FE8D3011068D60110A6
:101BA00090D30110C4D60110F0B5DE4657464E461C
:101BB0004546E0B58BB00990002308938200B54BF1
:101BC000D658370052E0B44BB44A3F21B44801F034
:101BD00099FAB44BB44A3C21B44801F093FA002975
:101BE00001D1002869D10021404600F0F5FEA04255
:101BF00019D12A686B6806920793AB689846EB6820
:101C00009A464346002B14D0002C18D03B681B7B0F
:101C10009C4214D8631EFA68D35C08931B021843D5
:101C20003861002015E0A24BA24A8E219F4801F0A6
:101C300069FAA14B9F4A92219C4801F063FA994BA3
:101C40009E4A4121994801F05DFA00239A46984640
:101C500000207B68BFF35F8F00221A6086F3108834
:101C60004346002B32D1002800D10CE100F0FAFBF2
:101C700002000B1EA7DB0020002106900791786868
:101C8000EFF3108672B601680029FCD0BFF35F8FB6
:101C9000396888464C7B002CD7D09AD0097B8C427F
:101CA00097D8874965182D01B9688C46654428681E
:101CB0006968801A9941002991DD2A686B68099842
:101CC00000F05CFC00239A469846C2E7089B1B0282
:101CD0002343994651461800C04705000E007A6814
:101CE000EFF3108B72B6136859424B41D9B2002BF7
:101CF000F9D1BFF35F8F002E1EDB002E46DD3B695E
:101D0000002B47D04B456DD100F0ACFB02000B1E01
:101D10006EDB52197341002B70DB002B72DB00214C
:101D20000491013103910294514601914146009181
:101D30003800FFF77FFE4CE03B69002BDDD04B45C0
:101D400014D1069A079B521BB341002B14DB002BC6
:101D500016DB002104910131039102945146019157
:101D6000414600913800FFF765FE32E0554B514A7D
:101D7000A1214E4801F0C6F901225242524BE6E73A
:101D8000454B464A3F21464801F0BCF9002E01D19F
:101D9000002DB4D13B68002C50D05A7B944237D1EF
:101DA000012100294AD1DA7B002A4DD19A7B002AF1
:101DB00003D1DA7B002A5AD19C73DC73002C5CD0EF
:101DC0003B681B7B9C4258D8FA68013C135D013389
:101DD000135500233B617A68BFF35F8F13608BF369
:101DE000108843E7374B334AA421304801F08AF981
:101DF000294B2A4A3F212A4801F084F90122524204
:101E0000314B8AE7244B254A3F21254801F07AF9D6
:101E1000002C0DD01A7B94420AD862001219033AA2
:101E20001868844662449278002ABAD00121B8E743
:101E3000264B274A6821274801F064F9264B274A98
:101E4000F621244801F05EF9002A0AD0197B8A4263
:101E500007D851008A18033A19688C4662445470B6
:101E6000A4E71A4B1A4A68211A4801F04BF91C4B97
:101E70001A4AFB21174801F045F90A4B0F4A412144
:101E80000A4801F03FF90BB0F0BCBB46B246A94688
:101E9000A046F0BD70CD002070CC011034D60110EA
:101EA0008CCC0110E8D3011068D6011094D3011036
:101EB000E8D401104CD6011000D501108CD60110C9
:101EC000FFFFFF0F0CD50110FFFFFF7F0CD40110A7
:101ED000D4D6011028D4011048D50110A0D6011085
:101EE0006CD5011010B50C4B5B68002B04D00A2197
:101EF0000A48FFF781FC10BD074C2300084A102157
:101F0000206800F079FC032000F0A0FA03212000F3
:101F1000FFF7ACFCEBE7C046AC0C0020FCE1002076
:101F2000D518001010B5064B5B68002B01D0044893
:101F300010BD044B044A5E21044801F0E3F8C0469A
:101F4000AC0C002080D5011074D6011094D3011080
:101F5000F0B5DE4657464E464546E0B58BB0804666
:101F600016001F00149B9A46159B994616AB1B78CA
:101F70009B461F2302AA9446634400221A702BE05A
:101F8000002809D042461268127B904204D8421EB3
:101F90004146C9688A5C41E0404B414A4121414881
:101FA00001F0B0F807984CE0361BAF41002F07DB7B
:101FB000002F11DA3C4B3D4A3F213D4801F0A2F889
:101FC000012676423B4FF3E7374B384A3F213848EA
:101FD00001F098F8002F4FDB43465A68EFF3108466
:101FE00072B6136859424B41D9B20791002BF8D110
:101FF000BFF35F8F1F3302AA944663440493002308
:10200000039302934B4601935346009332003B00E7
:102010004046FFF70FFD031EB2D10200414649685A
:10202000BFF35F8F00250D6084F31088002B29D04B
:102030001F2302A98C4663441B78002BB2D11202E5
:102040001043002B20D05B46002B1DD04946D047C3
:1020500004000D0003000B431DD00029A4DB00F099
:1020600001FA06000F1EAFDB36196F41002FB1DAFF
:10207000012676420F4FADE70B4B0C4A3F210C482F
:1020800001F040F8012040420BB0F0BCBB46B24624
:10209000A946A046F0BD0798F6E7C046E8D3011070
:1020A0008CD6011094D3011070CC011034D60110DD
:1020B0008CCC0110FFFFFF7FF8B50400002900D190
:1020C00062E04268EFF3108572B6136858424341EC
:1020D000D8B2002BF9D1BFF35F8FCBB22268567B09
:1020E000B3421BD10120002848D0206988422BD060
:1020F000090AC9B2002B2ED02068007B83422AD85F
:10210000581EE668305C88422BD000206368BFF31D
:102110005F8F00221A6085F31088F8BD002B0DD068
:10212000167BB3420AD85E00F618033E1768BC4619
:102130006644B678002ED6D00120D4E7134B144A5B
:102140006821144800F0DEFF2C21134B134AFF31A5
:10215000134800F0D7FF134B134A4121104800F0F9
:10216000D1FF1900100000F041FC0028CED19921C8
:102170000E4B0A4A49000A4800F0C4FF23698B420B
:10218000C4D100232361C1E70020C6E70CD40110AD
:10219000D4D6011028D40110A4D501101CD60110EA
:1021A00094D30110E8D301108CD60110C8D50110CA
:1021B000407D7047F0B587B006000F00EFF3058350
:1021C000002B1FD196246442E517A4197D418D424E
:1021D00002D803D1844201D900240025002D14DB4C
:1021E0000494059500F03EF902000B1E13DBA41ABF
:1021F0009D41002D17DC14D03000390000F03EF96D
:1022000007B0F0BD204801F017F8204B204A3F21CD
:10221000204800F077FF1D4B1D4A3F211D4800F06C
:1022200071FF002CE8D0FFF77DFE0023029301939D
:10223000194B0093049A059BFFF78AFE002812DAD7
:10224000DAE7002300E00023002BD5D1134B1A68F6
:10225000EFF3108172B61368002BFCD0BFF35F8FD1
:102260000E4815F0EDFA0499059A0D4B5B6A9A42F7
:10227000E9D80B48806A884203D29A42E1D0012310
:10228000E2E70123E0E7C046CCD5011070CC011095
:1022900034D601108CCC0110AD180010FCE10020E8
:1022A0000040054070B504000D0000F0DBF80200AE
:1022B0000B1E0ADB200029008018594100290ADB87
:1022C00000290CDBFFF776FF70BD084B084A3F2161
:1022D000084800F017FF012040420749F0E7034B90
:1022E000034A3F21034800F00DFFC04670CC0110A7
:1022F00034D601108CCC0110FFFFFF7F10B5FA22FD
:1023000092000023002102F065FCFFF7CBFF10BD17
:1023100070B584B005000C00EFF30583002B1ED1CF
:10232000FFF700FE002302930193224B00932A0043
:102330002300FFF70DFE061E23DD20BFFFF7F2FD91
:102340003100FFF7B9FE1C4B5B6A9C422DD81A4A3C
:10235000926AAA422CD29C4225D0012026E0164B3C
:102360005B6A994209D8144A926A824207D299421A
:1023700001D001201AE0002018E0002016E0012022
:1023800014E00D4B5B6A9C4209D80B4A926AAA4240
:1023900007D29C4201D0012008E0002006E0002086
:1023A00004E0012002E0002000E0002004B070BD45
:1023B0000120FBE7AD1800100040054070B5EFF3B9
:1023C00005801038EFF3108C72B61A4B1B68002B87
:1023D000FBD0BFF35F8F01221300834016494B638C
:1023E00016490B60164909780C00C440224214D0EB
:1023F000114A546A8200134D5259944206D3820006
:10240000114C125999430E4B197007E00A4A031DEB
:102410009B0099589950002200E00022BFF35F8F83
:10242000044B002119608CF31088002A00D09047DB
:1024300070BDC046280100D0004005403C700540FA
:10244000CCE3022008E20020841C002010B501002B
:10245000024A0348FEF7DAFD10BDC04600D701105E
:10246000BBE30220044B5B6A034A906A1900536A7B
:102470009942F9D17047C04600400540084B5B6A5D
:1024800001E0074B5B6A8B42FBD301E0044B5B6AC4
:102490008B4203D1024B9B6A8342F7D37047C046FD
:1024A0000040054070B504000D00FFF7DBFF02009F
:1024B0000B0020002900801859418B4202D804D11A
:1024C000824202D901204042C117002902DBFFF7F6
:1024D000D5FF70BD024B034A3F21034800F012FEB6
:1024E00070CC0110C4D701108CCC011070B5040061
:1024F0000D00EFF3108672B61B4B1B68002BFBD050
:10250000BFF35F8F002D1CD02000FEF793FE174B0A
:1025100083420BD019002000FEF7A6FE0121200007
:10252000FEF778FE0123A340114A1360A400114B6B
:10253000E550BFF35F8F0C4B00221A6086F31088C2
:1025400070BDA2000B4B0021D1500122A2400A49CC
:102550000B7893430B7005492000FEF7C9FF00215B
:102560002000FEF757FEE4E7280100D0BD2300104D
:1025700038600540841C0020CCE30220F0B5DE4624
:1025800000B584B00400150001921E000293FFF70D
:1025900069FF03958E4202D84ED185424CD9EFF3A4
:1025A000108B72B6274B1B68002BFBD0BFF35F8FDD
:1025B000254A17780125A540EBB23B431370234B06
:1025C0005D63221D92000199D150A200204902981A
:1025D00050501B6A2B4212D11C4B1B6C2B4208D053
:1025E0000020BFF35F8F174B00221A608BF3108817
:1025F00023E0184B184AC521184800F083FDFFF767
:1026000031FF8E4214D802D1039B834210D80E4B67
:102610001B78BB420ED00D4B1D625D631F20044032
:102620000123A3400E4A1360074B1F701E38D8E7E2
:102630000020D6E70120D4E7012004B080BCBB46CF
:10264000F0BDC046280100D0CCE302200040054088
:1026500008E2002024D70110A8D7011048D70110A4
:1026600080E200E0EFF3108C72B60B4B1B68002B7E
:10267000FBD0BFF35F8F01238340084A13620849F0
:102680000A789A430A70BFF35F8F034B00221A60E7
:102690008CF310887047C046280100D000400540E8
:1026A000CCE3022010B500291ED0037B99421BD831
:1026B0004B005B18033B0468A4466344002919D00F
:1026C000002A1DD0914221D0002A25D0047BA242AD
:1026D00022D80468500080180338201881701978B7
:1026E00000291FD11A7010BD104B114A68211148E2
:1026F00000F008FD104B114A6F310E4800F002FD4A
:102700000F4B0E4A70210B4800F0FCFC0D4B0B4A9E
:102710007121084800F0F6FC044B054A6821054881
:1027200000F0F0FC41701A70DDE7C0460CD40110D7
:10273000E4D8011028D4011090D40110D0D8011091
:102740009CD40110A8D4011070B506000D0014002F
:10275000002914D0002A14D0806873689847002894
:1027600006D0220029003000FFF79CFF280007E078
:102770002A0021003000FFF795FF200000E0100044
:1027800070BD0800FCE7000010B50023437301335F
:102790008373037BC3730123027B9A4214D9002BFA
:1027A0000CD0027B934209D85A00D218033A016830
:1027B0008C4662440133DBB25370EDE70B4B0C4A9D
:1027C00068210C4800F09EFC002A09D0924207D8EC
:1027D000016853009A18033A8A180023537010BDF9
:1027E000024B034A6821034800F08CFC0CD4011012
:1027F000E4D8011028D4011010B501734260836041
:10280000FFF7C2FF10BD000070B50400081E00D124
:1028100070BD002934D0237B994231D84B005B181E
:10282000033B2268944663445A78002AF0D02DD0A6
:10283000237B9A422AD853009B18033B21688C467D
:1028400063445D7800215970002825D0237B98428D
:1028500022D843001B18033B21688C4663440021A7
:10286000597001002000FFF76FFF060029002000CB
:10287000FFF7CAFF020031002000FFF765FFC7E73E
:10288000084B094A6821094800F03CFC054B064A00
:102890006821064800F036FC024B034A68210348D1
:1028A00000F030FC0CD40110E4D8011028D4011041
:1028B00070B505000C00160000292FD034D0037B22
:1028C000994231D84B005B18033B0268944663443D
:1028D0005A78002A2ED19A78002A31D11978FFF738
:1028E00093FF0300002E0AD0EA7B002A2ED1AA7B98
:1028F000002A03D1EA7B002A3BD1AC73EC73002B96
:102900003DD1002C4FD02B7B9C424CD82B686100D2
:102910000C19033C1C190023637070BD254B264A1B
:102920003821264800F0EEFB254B264A6821264830
:1029300000F0E8FB254B204A3A21204800F0E2FB5A
:10294000234B1D4A3B211D4800F0DCFB002A0AD026
:10295000297B8A4207D851008A18033A29688C4695
:1029600062445470C3E7164B164A6821164800F0BB
:10297000C9FB184B104A4221104800F0C3FB002B42
:102980000BD02A7B934208D843001B18033B2A68CC
:102990009446634400229A70B3E7094B094A6821C0
:1029A000094800F0AFFB064B064A6821064800F0D4
:1029B000A9FBC046DCD70110BCD80110E4D7011038
:1029C0000CD40110E4D8011028D4011038D801101B
:1029D00060D801106CD5011070B504000A00457B69
:1029E0002900FFF765FF6073280070BD70B5040013
:1029F000002967D0437B8B420ED0002911D0037B86
:102A000099420ED84B005B18033B0268D0188378BC
:102A1000002B0CD1002056E00121FFF7DDFF012043
:102A200051E0294B294A6821294800F06BFB002B13
:102A300020D0227B93421DD85A00D318033B226832
:102A4000D2182568EB5C8B421AD0002B1BD0227B5E
:102A5000934218D85A00D318033B2268D2185378EF
:102A60008B4216D0002BF0D11A4B1B4A6B211B480E
:102A700000F048FB144B154A6821154800F042FB52
:102A80004378137007E0104B104A6821104800F09B
:102A900039FB437853700023837043700122200078
:102AA000FFF706FF0200617B814205D02000FFF79F
:102AB0004BFE6073012006E0094B074A712107486D
:102AC00000F020FB002070BD0CD40110E4D80110F0
:102AD00028D40110E0130210A4D80110E4D701108B
:102AE00084D8011070B5046BE30701D4200070BDD9
:102AF00002003032C0239B0113430A4A1A60456A20
:102B0000826AAD01AD18AD02062000F0BDF906499C
:102B100001F0CAFC0100280001F0C6FC0021FFF70B
:102B2000C1FCE3E7010300004E0E000070B5040095
:102B30000E001500FFF7D6FF22002C32E16A4E404E
:102B4000354080235B0113431D60206370BD00008E
:102B500070B505000C00062000F096F9C0002100B9
:102B600001F0A2FCC60908D00E4B9E4216D87F2366
:102B7000184001303400460800E001246C62AE6267
:102B8000002200212800FFF7D1FF062000F07CF989
:102B90008000A101891901F087FC70BD0026024C5C
:102BA000ECE7C046FEFF0000FFFF000010B505394E
:102BB0004901013AD2001143002B09D002220A43F5
:102BC000012B07D0002111436E22FFF7AFFF10BD8C
:102BD0000022F4E70421F6E7002909D00A22064B77
:102BE0009C466044434258414000044BC2527047E7
:102BF00080225200F3E7C0460080FCBF4CE2002078
:102C000070B505000C00062000F03EF9061E27D026
:102C1000164B9D4226D08022D203154B1A60154BCD
:102C20001A60154B9B6811009943FAD100212800C6
:102C3000FFF7D2FF21002800FFF78AFF06000023DC
:102C4000012208212800FFF7B1FF2A002C3280233F
:102C50009B01134310221A60084B2B630323AB64C0
:102C6000300070BD80221204D7E7C04600800340C8
:102C700000E0004000F0004000C000400103000000
:102C8000F8B5DE4657464E464546E0B505000F000E
:102C900092460A9A934250D31A0E91461E020A9AFD
:102CA00000233000494601F03DFC80466C00641969
:102CB000A400304B9C4664446368834200D2606049
:102CC0002B1FDBB29B46012B3DD9C0239B01234325
:102CD000802212011A60AB00274A9958002907D0B8
:102CE000506901F0E1FB431C5800C0180338FDD2C5
:102CF00053465A0123685A40E0231A4080235B015F
:102D000023431A605A46012A28D980239B01234372
:102D1000802212011A60434663604246002330005D
:102D2000494601F0FFFBAD00134B58510120F0BCA8
:102D3000BB46B246A946A046F8BD104B104A332107
:102D4000104800F0DFF9012FBFD1C0239B012343BE
:102D500003221A60A368DB07FCD5C9E72168794024
:102D600003220A401A60A2680123BB401342FAD032
:102D7000CBE7C04600800040B01E0020F0D8011014
:102D800064D9011004D9011030B583B00C2000F0D3
:102D900011F9FEF71BF900280DD0002304E099007B
:102DA0002D4A2E4888500133092BF8D92A4B2C4A3A
:102DB0005A6203B030BD2B4B00229A6700F06CF9C9
:102DC000294B01221A60274B5B6C012BFBD1274B4F
:102DD00003221A60234B9B6B012BFBD10133009321
:102DE0000433234A0121234800F054F805230093BB
:102DF000214A0121214800F04DF8214B0093002287
:102E000002210420FFF73CFF1E4D00952B000022FD
:102E100001210520FFF734FF104C0094230000220D
:102E200000210720FFF72CFF00942300002200213F
:102E30000820FFF725FF0A4B009323000022002102
:102E40000920FFF71DFF00952B000022002106201E
:102E5000FFF716FFADE7C046B01E0020006CDC0295
:102E60001BB70000008000403CB0004030B0004084
:102E7000002F685900800240008C864700C0024045
:102E8000001BB700405973078000014BC0587047C2
:102E9000B01E0020F0B5C64600B504000E001700B5
:102EA0001D00374801F000FB8046364BFA18364BC0
:102EB0009A4239D80100380001F0F6FA0200103ABF
:102EC00098235B009A4235D86B1E062B38D8069B98
:102ED000013B062B34D83F09474537D32D04069BC9
:102EE0001A0315432368002B36DB284B9C4244D041
:102EF00080225201264B1A60264B1A60264B9B6893
:102F000011009943FAD12660A060231DC0229201CE
:102F10001A43212313602368002BFCDAE5600823A1
:102F2000136080BCB846F0BD1C4B1D4A11211D48E2
:102F300000F0E8F81C4B1A4A19211A4800F0E2F890
:102F40001A4B174A1C21174800F0DCF8184B144A9A
:102F50002321144800F0D6F822683F231340B342DF
:102F6000C3D1A3681B051B0D8342BED1E368EE22CB
:102F7000D2021340AB42B8D1D3E780229201B9E725
:102F8000001BB70080E84BD380F8A93200C0024094
:102F900000E0004000F0004000C0004074D9011083
:102FA000B4DA0110D4D9011030DA01104CDA011072
:102FB00098DA011080239B000343014AD3627047D3
:102FC00000800540024B1A68024B5A607047C046A9
:102FD000043200200080054010B50200164B80200E
:102FE000C0051860154B1648186000290AD0154B0B
:102FF000E021C9041960002A09D1124B802212066F
:103000001A6010BD0C4BE021C9041960F3E75301AD
:103010009B1A9800801800010B4B186080235B04FA
:10302000984202D3084B094A1A60FFF7CBFF054BC1
:103030008022D2051A60E4E700B005400820014074
:10304000FCFF010000A0054004320020FFFFFF004C
:1030500010B5030010000C4A8024E4051460002B16
:103060000DD001221343094A094CD461094C5C403C
:103070001462516293620021FFF7AEFF10BD034B53
:103080000022DA61F7E7C04600B005400080054045
:10309000D3C007B02D3FF84F064BAA2212011A6089
:1030A0002F22DA60044B054A1A60024B5B68002B42
:1030B000FBDA7047004002400060024000B0FA00B6
:1030C00000BEFDE703000A4A1268002A08D0084A39
:1030D0001068C318074A9A4206D3054A136070471E
:1030E000034A05491160F2E701204042F7E7C04674
:1030F000D02D002000000420D0E3022010B5FFF7FF
:10310000DFFF000010B582B00C001900002A0CD0BF
:10311000084B002A0BD001920093230002000648BE
:1031200002F08AF90120FFF7CBFF044BF1E7034AD5
:10313000F1E7C046C0DA0110D0DA011090CA0110E0
:1031400070B52B4B2B4A1A602B4B2C4A1A602C4B18
:103150009A682A4B9343FAD12A4C01E008CC98474D
:10316000294B9C42FAD3FFF70FFE234B274A1A60E4
:10317000234B9B68DB43DB01FAD1254B40229A6746
:103180005A671A67DA66234C09E0234B234A8721E2
:103190002348FFF7B7FF2000FEF736FB0834214B2A
:1031A0009C4209D22368002BF5D0012BEDD12000E1
:1031B000FEF738FB0C34F2E71B4CA1681B4DC02214
:1031C000280001F067FFA560EFF30583002B00D016
:1031D00000BEFDF77DFFFEF7EDFAFEF783FE144C0F
:1031E00001E008CC9847134B9C42FAD370BDC0460F
:1031F00000E00040BFCDFBFE00F00040FE7F3C0041
:1032000000C000400016002010160020FFFFFF0144
:1032100000F00140F015002000DB0110A0DB0110E0
:1032200020DB01100016002000ED00E0000000206F
:10323000101600201C1600200FB400B583B00848FB
:1032400002F0CAF8049B002B07D005A901911800D1
:1032500002F0D2F8034802F0BFF80120FFF730FF78
:1032600080DB0110D4CB011010B50148FFF7E4FF5B
:1032700090DB01109A4200D288547047704710B515
:10328000002802D00B684968984710BD0100002053
:1032900007E083001B185B00501C08601078C01802
:1032A00030380A681378303BDBB2092BF1D970470C
:1032B000F0B5DE4657464E464546E0B583B09346E8
:1032C0001F000C9B9A460D9C0E9B99460F9B9B07DB
:1032D00003D0B8460F00060022E00192A3468846BC
:1032E0004E46B9460700B44207D2551C4B464146EC
:1032F0002020B84701342A00F5E73D004F465C46E0
:10330000019B9B46B1464646B84637002E0007E073
:10331000013C551C5346185D43463900B0472A000E
:10332000002CF5D135003E0047460F9B9B0707D484
:10333000100003B0F0BCBB46B246A946A046F0BDA3
:10334000B0464E46B9462F005D46531BB342EFD2FE
:10335000541C4B4641462020B8472200F5E7F0B503
:10336000CE46474680B585B0944698460C9D0D9C48
:103370000EAB1B789946109A119B129EB7071CD46E
:10338000002B0CD0F7070AD54F46002F02D10C377F
:10339000374204D0013B02E030272F5501349442DC
:1033A00001D21F2CF8D9F70707D59C4205D21F2C54
:1033B00003D830272F550134F5E7F70615D57705E3
:1033C00005D4002C03D0944224D09C4222D00F9AE2
:1033D000102A2BD00F9A102A30D00F9A022A35D0FB
:1033E0001F2C02D830222A5501341F2C05D84A46FA
:1033F000002A31D02D222A550134039602930194DC
:10340000009543466246FFF753FF05B0C0BCB9467E
:10341000B046F0BD621E012C06D00F9F102F01D0C8
:103420001400D4E7023CD2E71400D0E7B206D1D4AE
:103430001F2CCFD878222A550134D1E7B206CCD53B
:103440001F2CCAD858222A550134C9E71F2CC7D8C7
:1034500060322A550134C3E7720703D52B222A555F
:103460000134CAE73207C8D520222A550134C4E7FF
:10347000F0B5DE4657464E464546E0B593B0814628
:103480008A46089209931CAB10CB1B789B461E9D65
:10349000219B9846002C03D1102342469A43904624
:1034A0008023DB0046461E4042461A4212D0002CC2
:1034B00022D000260EE03033D9B2771C0AAB9955E2
:1034C0002900200000F0F0FFAC4216D31F2F14D8C3
:1034D0003E0004002900200000F0E6FFCBB2092BDB
:1034E000E9D94246920605D54121C918C9B20A391F
:1034F000C9B2E2E76121F8E7270043460693209B23
:1035000005931F9B049303955B46029301970AABB7
:103510000093099B089A51464846FFF720FF13B0D5
:10352000F0BCBB46B246A946A046F0BDF0B5DE46AB
:1035300057464E464546E0B595B0089009910A9227
:103540000B931E9E1F9C20AB1B789B46229B99468B
:10355000239D269B9A463300234303D110335246C2
:103560009A4392468023DB0057461F4052461A4238
:1035700019D0330023432DD0002714E03033DAB2C2
:103580007B1C98460CABDA554A462B0030002100D4
:1035900000F0C8FFA5421FD819D043461F2B1BD8E7
:1035A000474606000C004A462B003000210000F080
:1035B000B9FFD3B2092BE1D95246920605D5412273
:1035C000D218D2B20A3AD2B2DAE76122F8E7B145AC
:1035D000E3D901E00023984653460693259B0593C3
:1035E000249B04934B4603935B460293434601930B
:1035F0000CAB00930B9B0A9A09990898FFF7AFFE52
:1036000015B0F0BCBB46B246A946A046F0BD0000CE
:10361000F0B5DE4657464E464546E0B591B0834686
:103620008A460C9298461A9C08941B9D0995220084
:103630002B002000290001F0F0F9002800D0E5E07F
:1036400001225242D74B2000290001F0E1F9002865
:1036500000D0DBE001225242D34B2000290001F0D0
:10366000C1F9002800D0D1E000220023089E3000DC
:10367000099D290001F0B6F9002800D0DDE0089886
:103680000999069007918023DB001E9A1A400D923B
:103690001E9A1A4201D106231C930698079904002A
:1036A0000D000A000600024300D1D1E0080D4005DC
:1036B000400DBE4CA44660440A03120BBC4B13439E
:1036C0001F0001F0BDF9BB4ABB4B01F04CF9BB4AEE
:1036D000BB4B01F029F904000D000022B94B30006A
:1036E000390001F01CF9B84AB84B01F03CF902006E
:1036F0000B002000290001F017F901F0B9F981460B
:1037000001F09EF904000D00B14AB24B01F02BF913
:103710000022B14B01F008F901F0AAF90600AF4A06
:10372000AF4B2000290001F01EF904000D0030000D
:1037300001F086F9AB4AAC4B01F015F902000B0021
:103740002000290001F0EBF804000D0002000B003E
:1037500001F009F90A900B91A44BF31800261F05FC
:1037600022002B002000290001F0DEF80E900F91BE
:1037700022002B0000208021C90501F0D0F80400B0
:103780000D0000229A4B0A980B9901F0D2F8002202
:10379000984B01F0C9F802000B000A980B9901F050
:1037A000C8F80022944B01F0BFF802000B000A9801
:1037B0000B9901F0BEF802000B002000290001F077
:1037C000B3F802000B000E980F9901F0B2F8002236
:1037D000774B01F0A9F832003B0001F0C4F8060075
:1037E0000F0004000D00069A079B01F011F9002854
:1037F00030D001235B429C46E14400227D4B3000E7
:10380000390001F096F804000D0023E01E9B04939C
:103810001D9B03931C9B0293089A099B00920193A2
:1038200043460C9A5146584600F0FCF811B0F0BCE3
:10383000BB46B246A946A046F0BD0023002406932D
:103840000794069680231B069C46654407951AE755
:10385000002399464B466333C62B1ED804261E9B75
:103860001B0526D52B0023430FD0644A644B0698D2
:10387000079901F0C5F8002879D00022614B06981D
:10388000079901F0AFF8002871D01C9B4B4506DD6D
:103890004A46981A431E1C9303E00526DFE70023DF
:1038A0001C938023DB001E9A1A431E9200260023DD
:1038B00099461D9B9E4264D29F1B02231E9A1A406A
:1038C0000A921E9A134202D0002E00D000274B46C7
:1038D000002B07D022002B000698079901F029F849
:1038E00006900791002200230898099901F07AF8C0
:1038F000002848D1444B1E9A1340049303971C9B05
:103900000293069B079C0093019443460C9A5146F0
:10391000584600F087F8002E00D187E71E9B9B06D3
:103920003DD54525441C4346020051462800D84752
:103930004B46DA179B18534005220592013E049628
:10394000002203920A3202924A46D00F019000935D
:103950004346220051465846FFF78AFD0A9B002B3A
:1039600000D163E702005F460C9E1D9D54E01C9B46
:10397000002B9ED00D9B002B9BD01C9B013B1C93CE
:1039800097E7002799E7069C079D220029008020E1
:103990000006844661440B0006920793AAE765255A
:1039A000C0E7C046FFFFEF7FFFFFEFFF01FCFFFF17
:1039B0000000F03FFB799F501344D33FB3C8608BA6
:1039C000288AC63F0000F83F61436F63A787D23F54
:1039D00071A379094F930A400000E03F1655B5BB2B
:1039E000B16B0240EF39FAFE422EE63FFF030000C2
:1039F00000002C4000002440000018402D431CEB28
:103A0000E2361A3F80842E41FFF7FFFF541C4346E5
:103A100051462020B8472200931BAB42F6D310003A
:103A200004E7C046F0B5DE4657464E464546E0B58B
:103A300095B00690079193469946209F1E9A1F9B2A
:103A40001000190000F0E9FF002831D10122524294
:103A5000BF4B1E981F9900F0C5FF002837D10122E7
:103A60005242BC4B1E981F9900F0D2FF00283DD156
:103A70000022B94B1E981F9900F0CAFF002850D1B0
:103A80000022B64B1E981F9900F0ACFF002848D1C9
:103A9000002200231E981F9900F0A4FF002850D197
:103AA00000239846229B5B0500D4B6E0002458E032
:103AB000229B0393219B029303230193A84B009322
:103AC0004B465A4607990698FFF7F2FB0EE1229BF8
:103AD0000393219B029304230193A24B00934B4633
:103AE0005A4607990698FFF7E3FBFFE00423229A62
:103AF0001A4022990B4210D09B4B002A0FD004226F
:103B00002299039121990291019200934B465A46C2
:103B100007990698FFF7CCFBE8E0944BEDE703220A
:103B2000EEE7229B0493219B039302971E9B1F9C0D
:103B3000009301944B465A4607990698FFF768FD93
:103B4000D4E01E9A1F9B0020002100F0E8FE1E908A
:103B50001F9101239846A5E70CAB30221A55013F6F
:103B600001341F2C01D8092FF6D81E981F9900F098
:103B70007FFF050000F064FF02000B001E981F99F4
:103B800000F0CDFEFA007A4B9B181A685B680A9227
:103B90000B9300F0E8FE0890099100F08DFF0600FD
:103BA00000F04AFF02000B000898099900F0B7FEE8
:103BB0000890099100226F4B00F02AFF00282ED0B8
:103BC0000136300000F038FF02000B000A980B9914
:103BD00000F00EFF002801D001350026002F2CD167
:103BE000280000F02DFF02000B001E981F9900F026
:103BF00096FE06000F0000225E4B00F0F3FE002848
:103C000046D100225B4B3000390000F001FF002854
:103C10003ED1EB073CD501353AE0062746E70022C6
:103C2000544B0898099900F0DDFE0028D6D1002EEB
:103C300001D0F307D2D50136D0E7AA461F2C11D800
:103C4000013F0A21300000F02FFC651C30310CAB25
:103C500019550A21300000F027FC092E0ED9060064
:103C60002C00EBE755461F2C0CD87B1E002F09D0EB
:103C70000CAA302111551F000134F4E72B005546E2
:103C80001C00F0E71F2C03D80CAB2E221A55013470
:103C90001F2C10D80A21280000F0DEFB661C3031F2
:103CA0000CAB19550A21280000F0D6FB051E01D0E7
:103CB0003400EDE734000323229A1340012B1CD07B
:103CC0001F2C06D84346002B32D00CAB2D221A55A0
:103CD0000134229B0393219B029301940CAB00932C
:103CE0004B465A4607990698FFF7E2FA15B0F0BC22
:103CF000BB46B246A946A046F0BD219B002B13D07F
:103D00004346002B02D10C3313420FD0219B013BC1
:103D10002193190003E00CAB30221A5501348C4278
:103D2000CED21F2CF7D9CBE72199F8E72199F6E7F6
:103D3000229B5B0704D50CAB2B221A550134C8E734
:103D4000229B1B07C5D50CAB20221A550134C0E7B6
:103D5000FFFFEFFFFFFFEF7F65CDCD4165CDCDC10B
:103D6000BCDB0110C0DB0110B4DB0110B0DB0110C3
:103D7000A8DD01100000E03FF0B5DE4657464E4694
:103D80004546E0B593B082468B4690461193002994
:103D900000D1EBE200275546119B1878002800D18E
:103DA000E7E2252809D07C1C43463A005946A8473B
:103DB000119B013311932700EEE701331193002487
:103DC000119A11780B00203BD8B2102803D8830039
:103DD000D048C3589F460B00303BDBB2092B2CD98F
:103DE0002A292FD000230A93119B1A782E2A39D022
:103DF00000239A46119A1378683BD9B2122976D8D3
:103E00008B00C549CB589F4601231C4301321192B8
:103E1000D6E702231C4301321192D1E704231C434D
:103E200001321192CCE708231C4301321192C7E7FB
:103E300010231C4301321192C2E711A8FFF726FAA2
:103E40000A90D1E71C9B1A1D1C921868002804DBFD
:103E50000A90119B01331193C6E702231C4343428E
:103E60000A93F6E78022D20014435A1C11925A7822
:103E70001300303BDBB2092B04D92A2A07D00023D8
:103E80009A46B7E711A8FFF701FA8246B2E71C9BF2
:103E90001A1D1C921868002804DB8246119B01330E
:103EA0001193A7E70020F8E780235B002343511C10
:103EB000119152786C2A01D01C0018E0C0239B009D
:103EC0001C430131119112E080232343511C1191B5
:103ED0005278682A01D01C0009E0C0231C4301313C
:103EE000119104E080235B001C4301321192119B6D
:103EF00018780300253BDAB2532A00D92CE293004C
:103F0000864AD3589F4680239B001C43013211925E
:103F1000EDE780235B001C4301321192E7E778282C
:103F200009D0582838D06F2838D0622838D01023CC
:103F30009C430A2600E01026582833D0692803D075
:103F4000642801D00C229443630501D501229443D7
:103F500069282AD0642828D0A30500D59FE0E3056E
:103F600000D5B8E0630600D4CAE01C9A111D1C916C
:103F70001168FF220A4005940A9B04935346039359
:103F8000029600230193009243463A0059462800C6
:103F9000FFF76EFA070027E01026CDE70826CBE7EB
:103FA0000226C9E720221443C8E7A30520D4E3056D
:103FB00050D4630666D51C9A111D1C911168FF220E
:103FC0000A40D317D118594005940A9B04935346CD
:103FD00003930296D20F0192009143463A0059464C
:103FE0002800FFF745FA0700119B01331193D3E630
:103FF0001C9BDA1D07218A43110008311C911168AE
:1040000053689C46DB170C930D930C9A0D9B100084
:1040100048400E90624653400F930E980F990C9AA9
:104020000D9B801A99410E900F9108940A9B07935B
:10403000534606930496002305936346DA0F0292D3
:104040000090019143463A0059462800FFF76EFA66
:104050000700C9E71C9A111D1C911268D317D118CB
:10406000594005940A9B0493534603930296D20F3A
:104070000192009143463A0059462800FFF7F8F9AB
:104080000700B1E7230605D51C9A111D1C910023DA
:10409000D25E96E71C9A111D1C91126891E71C9B39
:1040A000DA1D07218A43110008311C9108940A9BEC
:1040B00007935346069304960023059302931368CF
:1040C00054680093019443463A0059462800FFF78C
:1040D0002DFA070088E71C9A111D1C9105940A9B74
:1040E00004935346039302960023019313680093AD
:1040F00043463A0059462800FFF7BAF9070073E72C
:1041000023060DD51C9A111D1C9112681204120C65
:1041100031E7C046C8DB01100CDC011058DC01108F
:104120001C9A111D1C91126825E746281AD01C9B69
:104130000733072293431A0008321C9204940A9A08
:104140000392524602925C681B68009301944346B6
:104150003A0059462800FFF765FC0700119B013320
:10416000119319E620231C43E1E7672801D0472873
:1041700002D180231B011C43452801D0472801D1CF
:1041800020231C431C9B0733072293431A00083249
:104190001C9204940A9A0392524602925C681B682D
:1041A0000093019443463A0059462800FFF730FA3D
:1041B0000700119B01331193EEE502231A00224000
:1041C000924623421FD001241C9B1A1D1C927A1C6C
:1041D0009146187843463A005946A8475346002B63
:1041E00016D1119B013311934F46D5E5561C43461A
:1041F00059462020B847230032005C1C9D42F5D868
:104200003D001700E0E701233A002F000A9DF4E784
:104210004A46A9460A9D06E0571C434659462020B7
:10422000C84734003A00661CA542F5D84D46914671
:10423000D7E71C9B1A1D1C921B6899465346002BFE
:1042400000D1013B4E4601E0013613003278002ACE
:1042500002D05A1E002BF7D14B46F21A109280233F
:10426000DB0026001E401C4203D0524501D95346B4
:10427000109302231A0022400B92234205D03A00E9
:1042800037004C46A946554620E03A00109B5F4651
:10429000B3462E0006E0551C434639002020B047A7
:1042A00023002A005C1C0A999942F4D835005E4626
:1042B000BB46109437004C46A946554606E01D0003
:1042C0000134561C43465946C8473200207800281E
:1042D00004D0002FF4D06B1E002DF0D117004D46F6
:1042E0000B9B002B03D1119B0133119354E50A9FC3
:1042F000109B06E0561C434659462020A847230041
:1043000032005C1C9F42F5D81700ECE721231C43C8
:104310001C9B1A1D1C921B68009305940823049390
:1043200053460393102302930023019343463A001C
:1043300059462800FFF79CF80700119B01331193A1
:104340002AE57C1C43463A0059462520A847119B84
:104350000133119327001FE57C1C43463A00594660
:10436000A847119B01331193270015E50A4B9A4684
:1043700010E5AA46474502D343465A1E00E03A00DC
:10438000434659460020D047380013B0F0BCBB4626
:10439000B246A946A046F0BD7D3200100CB410B55F
:1043A00084B00A0006AC08CC0394009401000448D1
:1043B000FFF7E2FC04B010BC08BC02B01847C046CE
:1043C0007532001000B585B0029003910121009371
:1043D00013004A4202A90248FFF7CEFC05B000BD17
:1043E0007F32001001480421014B1847E00C0020E7
:1043F00021440010014B9B6818470000E00C00208E
:1044000010B5010018231B8814221088984710BD8E
:1044100010B5010018231B8816221088984710BD7C
:10442000F0B5C64600B507000E00002501239846EA
:1044300000E00135B5420AD2AC003C192068FFF714
:10444000DFFF20600028F4D100239846F1E74046C2
:1044500080BCB846F0BD0000124A936F9B0815D28D
:104460009066D166002905D0FFE7FFE7FFE7516FAF
:10447000106F704704B580210906C217514000280B
:1044800000D0C84318F06CFA002104BDF0B5146EDA
:10449000556E576F166FFFF7E3FF14665566576743
:1044A0001667F0BD000000D0114A936F9B0813D22D
:1044B00010665166002905D0FFE7FFE7FFE7516F5F
:1044C000106F704704B5002801D00020C04318F0D9
:1044D00047FA002104BDC046F0B5146E556E576F03
:1044E000166FFFF7E5FF1466556657671667F0BD50
:1044F000000000D094464A4A926F9208624601D268
:1045000028E0C046F0B5464E346E756E776F366F54
:1045100000F020F89446424A1466556657671667BD
:104520006246F0BD94463E4A926F9208624601D2BE
:1045300054E0C046F0B53A4E346E756E776F366F04
:1045400000F04CF89446364A14665566576716676D
:104550006246F0BD002B24DB11D000293EDA00B505
:10456000C943404200D1013100F038F8C94340420C
:1045700000D10131DB43524200D1013300BD002A9A
:10458000EBD1002801D1002905D00020C90FC907AF
:1045900001D1C043410800B518F0CAF90022002338
:1045A00000BD00B500290ADBDB43524200D10133D4
:1045B00000F014F8C943404200D1013100BDC943A5
:1045C000404200D10131DB43524200D1013300F0BF
:1045D00005F8DB43524200D1013300BD002923D14D
:1045E000002B18D1002A0CD0BC460D4F38667A66D5
:1045F00000210023FFE7FFE7FFE77A6F386F674688
:104600007047002801D00748010000B518F090F964
:104610000022002300BD02000B0000200021704793
:10462000000000D0FFFFFFFF002B00D0BFE0130C05
:1046300028D1002AE7D080B4114F39667A66FFE7A7
:10464000FFE730B4040C7B6F396F1B0423433B66D8
:104650007A66FFE7FFE7FFE7C04684B27B6F3D6FF6
:104660001B0423433B667A66FFE7FFE7C04600234F
:104670002C042D0C7A6F386F00196941B0BC70475B
:10468000000000D0F0B594460025140E01D11202AE
:104690000835140F01D112010435940F01D1920095
:1046A0000235D40F01D152000135D40B0134254F0E
:1046B0007C66254C3C660E0C93B2FFE7FFE7FFE7F4
:1046C0003C6F6643360C7703BE467343DF0B5B04D7
:1046D000C01AB941130C7343DB18C91ACE086643DC
:1046E000360CB64493B273431F0F1B01C01AB94175
:1046F000130C73431F0B1B05C01AB941860D8F02A3
:104700003E436643360C092D24DB520A7243801A5D
:104710007703460A6643360C16235B1BDE40DF40F8
:10472000BF1964466643821B704604350633010098
:10473000D940A840C01900D30131A24206D20023BB
:10474000F0BD0000000000D0FFFFFFFF121B013092
:10475000F3D3F1E709277F1BFE406446A2B2724300
:10476000801A00D20139220C7243130C1204821AEF
:1047700099410B007046043513370100F940A840F9
:10478000801900D30131002B02D1A2420AD2F0BD20
:10479000013000D30131121BFAD2013BF8D1A24201
:1047A00000D2F0BD013000D30131121BF7E7F0B5A4
:1047B0001C0C00D080E00CB400251C0A04D11B02A4
:1047C000160E3343120208351C0B04D11B01160FC1
:1047D0003343120104359C0B04D19B00960F3343E5
:1047E00092000235DC0B02D192185B4101351C00AE
:1047F000971864410134464F7C66464C3C660E0C6B
:10480000FFE7FFE7FFE7C0463C6F6643360C7703E0
:10481000BE4697B27743C01B00D20139C01B00D2FD
:1048200001399FB27743C91BC91B170C77437E041C
:10483000FF0B801BB941CE086643360C0C2D33DBD1
:10484000B644120B1F053A431B0B97B27743C01BAC
:1048500000D201399FB27743C91B170C77433E043E
:104860003F0C801BB941860D8F023E4366432927CA
:104870007F1BFE400C3D7746AF40BF1930BCA2B253
:10488000ABB272437343801A9941220C7243130CEA
:104890001204801A994102000B000137001BA94144
:1048A000F9D2781E0021F0BD0C277F1BFE40774611
:1048B0007F0BAF40FF19E0E700245D1C07D0144FC9
:1048C0007D663966FFE7FFE7FFE7FFE73C6F95B2DC
:1048D0009EB265436643401BB141150C1E0C6543F7
:1048E000664336042F0C3E432D04401BB1419942D0
:1048F00004D202000B0020000021F0BD01D1904243
:10490000F7D3801A994101349942F2D3F6E70000B7
:10491000000000D0FFFFFFFF48404140484018B46E
:10492000134B5B68019308BD18B4114B1B680193CE
:1049300008BD94460F4A926F920805D2624618B499
:104940000B4BDB68019308BD0A4AF0B5146E556E37
:10495000576F166F6246FFF7F2FF064A14665566F8
:1049600057671667F0BD18B4014B9B68019308BDEB
:10497000F4DF0020000000D0FFB55040424050401E
:1049800059404B40594000E0FFB5154F4C00640DB5
:1049900003D0BC4204D10C0314D80020090D090532
:1049A0005C00640D03D0BC4204D11C030AD8002271
:1049B0001B0D1B0501264B4009D44B4003D58B42F0
:1049C00000D18242FFBD9942FCD19042FFBD0B4312
:1049D000DB1803431343F5D0C9434918FFBD00005A
:1049E000FF07000000B5FFF7CFFF804100BDC046C4
:1049F00000B5FFF7C9FF01D9002000BD012000BDAF
:104A000000B5FFF7B9FF01D9002000BD012000BDAE
:104A100000B5FFF7B1FF804100BD012040054A000D
:104A2000121804D85A00121801D80020704701202B
:104A300070470020704700000021002805D1704712
:104A4000C1174840401AFAD0C90713B5064B1B6876
:104A500098470CBC441CA2401005120B0349091BCB
:104A600009051943114310BDF8E000201F040000A0
:104A700010B54C00620D8023D218DB00D21A5B0502
:104A80007E2A10DD9E3A13DACC1709034908194330
:104A90005242D140640001341532202A05DAD04058
:104AA0000843604310BD002010BD0846604310BDA0
:104AB000C80FC018013810BD18B4024B5B6A0193CF
:104AC00008BD0000F4DF002010B50148FEF7B4FB7C
:104AD000F8DD011070B513231C78012C14D0012CC3
:104AE00014DC022C02DC1F4A1F4B9A641F48FFF79C
:104AF00087FC1F4B186070BD99001E481A4A8850E9
:104B000001331F2BF8D9EAE70023FAE71A48FFF729
:104B10007FFC05001948FFF77BFC023803789B00F7
:104B20007F2B19DD802229000F4800F0B3FA022CF8
:104B3000D7D1134B1A88B5231B029A4209D1114BC6
:104B40001A88114B9A4204D1104B1A88104B9A4282
:104B5000C7D00020FEF770FB0E4B0F4A32210F48E2
:104B6000FEF7D0FAA14B0010F4DF00204C33000018
:104B7000F8E00020C94A00105344000053460000EA
:104B800054380000D8380000494600009C38000026
:104B90005946000010DE0110C8DE011064DE01106D
:104BA00007B56046002800D100BE01880A0A02301D
:104BB000DF2AFAD1C9B2820804D3028840880004EF
:104BC000104300E00068024A5050039007BD000007
:104BD000F4DF002051434343C9188C46110C83B2C3
:104BE0004B4310B4040C614392B280B25043624311
:104BF0001C041B0C001910BC59411304120CC018E2
:104C000051416144704700004840414048400E4BCC
:104C10005B6818470C4B1B6818470C4A936F9B083E
:104C200002D2094BDB681847F0B5146E556E576F0A
:104C3000166FFFF7F6FF054A146655665767166745
:104C4000F0BD014B9B681847FCE00020000000D03D
:104C500007B548404140484001E0C04607B5420022
:104C6000120E03D0FF2A03D1420218D8C00DC0058E
:104C70004A00120E03D0FF2A03D14A020FD8C90DF1
:104C8000C9050122414005D4414001D5814207BDFB
:104C9000884207BD0143491801D0C043001807BD31
:104CA00000B5FFF7DBFF01D0002000BD012000BDF3
:104CB00000B5FFF7D3FF804100BDC04600B5FFF748
:104CC000CDFF01D9002000BD012000BD00B5FFF7D8
:104CD000BFFF01D9002000BD012000BD00B5FFF7D6
:104CE000B7FF804100BD491A002807D10846704728
:104CF000C10FC90700D54042002817D0F44603B4BD
:104D00000B4B1B68984706BC81409E38404280315F
:104D100007D20B0607D04900490AC00510430843D3
:104D200060470130F8E7490A8902F5E7704700005B
:104D3000F8E0002041000A0E80231B067E2A0BDDCE
:104D40009E3A0BDAC1174002400818435242D04045
:104D5000490001314843704700207047C00FC01818
:104D600001387047C0420DD300B540004008002113
:104D700000F00EF8002801D4404200BD802000065B
:104D800000BD0000014BDB6918470000FCE000207B
:104D9000014B5B6A18470000FCE00020014B1B6BD5
:104DA00018470000FCE00020034A1047C217914258
:104DB000FAD0024BDB6D1847F14C0010FCE00020EC
:104DC000034A10470029FBD0024B5B6E18470000D6
:104DD000E74C0010FCE00020014BDB6F184700009F
:104DE000FCE00020014B9B6918470000FCE000201C
:104DF0004100090E862902DA044BDB6B184704498F
:104E000000B500F016F902BC8E46F5E7FCE0002084
:104E1000DB0FC9404100090E862902DA044B1B6CE6
:104E20001847044900B500F004F902BC8E46F5E7C6
:104E3000FCE00020DB0FC940014B9B6D18470000D0
:104E4000FCE0002010B50148FEF7F6F990CA011009
:104E500070B513231E781848FFF7DAFA0500012E03
:104E600011D0012E09DDAB1E1B789B007F2B1DDDB1
:104E700080222900114800F00DF91148FFF7C0FA0F
:104E8000104B186070BD542201000C4800F002F96C
:104E9000002300E001331F2BE3D89A00074C12597E
:104EA000002AF7D19A0008481051F3E7074B084A47
:104EB00042210848FEF726F953460000FCE0002096
:104EC0004C330000F8E00020454E0010DCDE0110FD
:104ED00074DF011010DF0110F0B5C64600B5050003
:104EE0000F00161E98461BDDC91101204042FFF736
:104EF000DBFA00220EE00C236C1244431D21C91A78
:104F00000C41013464109D40210079436D1A9A4090
:104F10001219F61A002E05DD0C2EECDC3300EBE73F
:104F20000020E6E7BD4201DBED1B0132BD4201DBA3
:104F3000ED1B0132002D09DB002D0ADB4346002B5F
:104F400000D01A60280080BCB846F0BDED19013AC7
:104F5000F2E7ED19013AF1E7F0B5CE46474680B5E4
:104F600083B01600C30F9946C30DFF2423404502AA
:104F70006D0A8022120490461543CF0FCA0D1440CB
:104F80004902490A42460A439046002E01D00021B8
:104F90003160FF2B41D0002C42D0002B47D0FF2C9A
:104FA00040D0611E99423DDC23D04A46002A00D001
:104FB0006D421A1B01AB41462800FFF78DFF4300ED
:104FC000434503DC07D1019BDB0704D54346C01AE8
:104FD000019B01330193002F02D0019B5B4201939F
:104FE000002E01D0019B33609621091BFFF7D6FEEE
:104FF00018E0454516DD4B46002B06D143465800C8
:10500000281A012301930C00E5E743465800401B92
:1050100001235B4201930C00DDE7FF20C00501E0A6
:10502000FF20C00503B0C0BCB946B046F0BD0020AB
:10503000F8E710B50022FFF78FFF10BD70B5040030
:105040000A4E300017F0CCFC200016F07FFB050064
:10505000300017F065FC002D05D02C19044B9C4244
:1050600001D8280070BD0348FEF7E6F8F0150020CF
:105070000000042088DF011001480421014B18477B
:10508000F00C002021440010014B1B681847000061
:10509000F00C0020014B5B6818470000F00C00206A
:1050A00010B50300080011001B68984710BD0000F0
:1050B000F8B507000D001600437D002B02D0002438
:1050C00000200CE003681100280098472DE03B7D8C
:1050D00010E0022115483B689847601C0134B44237
:1050E00014DA002CF3DD2B19013B1B780D3B5A42DF
:1050F0005341DBB22A5D0A2AF0D1002BEED1A04247
:10510000E7DA211A28183B689847E2E7B04203DA49
:10511000311A28183B689847002E06DDAD19013D6D
:105120002B780D3B5A4253413B75F8BD10E00110FE
:1051300070B505000368002B16D00C4B1C6805E009
:10514000290004C92000FFF7B3FF2469002C09D00F
:105150002368002BF9D0064B1B68002BF0D0A3422C
:10516000F3D1EDE700232B6070BDC046B42D0020C5
:10517000C02D002070B505000C000B68802B05D0F9
:1051800021684B1C23606418257170BD0800FFF76F
:10519000CFFFF5E7F0B583B007000E000092019352
:1051A00028E0A368002B04D031003800984700287D
:1051B00027DC2469002C06D0134B1D68002DF0D08D
:1051C000A542F6D1EDE70099019A104B5B6A9A422D
:1051D00009D80E48806A88420FD29A4201D0012332
:1051E00002E0002300E00023002B08D10120002171
:1051F000FDF758F9064B1C68DCE70123F4E70120B2
:10520000404203B0F0BDC046C02D00200040054024
:10521000B42D002010B5FDF725F902000B1E0BDBA5
:105220000D48002112184B41002B0BDB002B0DDB2E
:105230000A4817F0B5FB10BD094B0A4A3F210A483E
:10524000FDF760FF01225242084BEFE7044B054A8D
:105250003F210548FDF756FF40420F00F81500209A
:1052600070CC0110F8DF01108CCC0110FFFFFF7F24
:1052700010B5024817F054FB10BDC046F8150020C9
:10528000F0B5CE46474680B583B006000D00904687
:105290001C00FFF7BFFF81466B1C05D0002C08D017
:1052A000194F1A4B1C6807E0300016F095FE0500F8
:1052B000F4E7174FF5E72469002C17D02368002B7B
:1052C000F9D0144B1B68002B01D0A342F3D12A0064
:1052D00031002000B8474346002BECD06B46D91D67
:1052E0000A230B7001222000B847E4E74B46002B4D
:1052F00007D16B1E9D41E8B203B0C0BCB946B046B1
:10530000F0BDFFF7B5FFF4E7A1500010B42D002069
:10531000B1500010C02D002010B582B004006B46C3
:10532000D81D0470002300220121FFF7A9FF2000EF
:1053300002B010BD10B5030008001100002B05D10C
:10534000044B1A685B68FFF725FF10BD012040423F
:10535000FBE7C046F8D6011010B5030008001400A2
:10536000013B012B06D8002300222100FFF788FF14
:10537000200010BD01204042FBE701204042704761
:10538000012040427047012040427047094A01E035
:1053900010331A001368002B08D08342F8D100297B
:1053A00007D1036913600023036102E0002900D0E4
:1053B00010607047B42D002010B5064B1C6801E04A
:1053C00098472469002C03D06368002BF8D1F8E7D4
:1053D00010BDC046B42D002070B5050016F0FCFDD0
:1053E00004000023012201002800FFF749FFFFF716
:1053F000E3FF200070BD000070B5A2B004000E00F5
:10540000FFF708FF0500002301933300220001A9E4
:105410000848FEF7D7FF040001A8FFF789FEFFF751
:10542000CBFF002D02D1200022B070BDFFF720FF7E
:10543000F9E7C046755100100FB400B583B004A958
:1054400001C90191FFF7D8FF03B008BC04B01847A9
:1054500010B500F0FBF800F043FA012010BD000089
:10546000F0B583B005000E0000240FE06B46D91D97
:105470000D230B700020002816D193699B06FCD4E5
:105480000B78136001300131F5E70134B44219DAC9
:105490000D4B1A682F5D0D4BD31859424B415B00E1
:1054A0000B495B5EBB42E1D06B46D91D0F700020FB
:1054B0000028EAD193699B06FCD40B781360013075
:1054C0000131F5E703B0F0BD50E200200080FCBFE1
:1054D0004CE20020F0B583B006000F00002504E088
:1054E0006B4607331B782B702500BD4215DA174B2E
:1054F0001A6893691024210019401C420DD16C1CBC
:1055000075196B46D81D0029EAD19369DB06FCD4D6
:105510001368037001310130F5E70D4B1B68002B58
:105520000CD00A4B1A685023936311003431536B2B
:1055300038221A4080235B010B431A60002D02D0F1
:10554000280003B0F0BD033DFAE7C04650E200205A
:105550009C1E002010B5064B1B68002B06D0054A88
:10556000126800219163044A1068984710BDC04634
:105570009C1E002050E20020A41E002070B50400F4
:105580000E001C4B1B681C4A9818424250411430B4
:105590000500002C03D0194A1268002A06D0002CFE
:1055A00019D0164B1C60164B1E6070BD1549FBF7D9
:1055B0005BFE01212800FBF72DFE0E4B1A685023DD
:1055C000936311003431536B38221A4080235B01FE
:1055D0000B431A60E5E7094A1268002AE1D000226D
:1055E0009A6300212800FBF715FE06492800FBF707
:1055F0007FFFD6E750E200200080FCBF9C1E002009
:10560000A41E00205555001070B50D001C000D4B58
:105610001860002A0BDA002C0EDA0A4B18682900F1
:10562000FDF7EEFA01210848FFF7B0FE70BD022138
:105630001000FBF77BFBEEE702212000FBF776FB77
:10564000EBE7C04650E20020000D002010B5064BED
:105650001B78064B1B78E1210123002249020448F4
:10566000FFF7D2FF10BDC046E8C20510ECC205101E
:105670000040034070470000014B00221A70704741
:10568000C2E302204B79FF2B0CD18B79002B0BD17D
:10569000CB79012B0AD1082A0AD98A78054B1A70CE
:1056A000092000E0002070470020FCE70020FAE716
:1056B0000020F8E7C2E302200120704770B5040023
:1056C0000D000348FEF79CFE0300290020009847C8
:1056D0005542000010B5012926D1117953791B02DA
:1056E0000B43124909788B4201D000201DE053780A
:1056F000012B03D0022B10D0002016E09178D37834
:105700001B021943DB0506D54B0A012098407F2375
:105710001940FFF7D3FF0020F9E7642200210020A1
:10572000FDF796FC012000E0012010BDC2E302203D
:10573000012303700048704754E0011010B50B7846
:105740004878000218438A7812041043CB781B066D
:1057500003439622D200934200D010BD00210800DE
:10576000FFF7ACFF024B1860024B19607047C04650
:10577000A01E0020A81E002010B5024B1878FBF7D1
:1057800051FD10BDC3E3022070B5134B1B68002B05
:105790001DD0114B1968EFF3108372B60A68002A06
:1057A000FCD0BFF35F8F0C494B6000220B480270A6
:1057B0000968BFF35F8F0A6083F310880024002517
:1057C000074B1878FBF72EFD2000290070BDFA2446
:1057D000A4000025F4E7C04668CD0020C5E3022000
:1057E000C3E3022010B584B000212D4817F0C0F8A3
:1057F00000283AD12B4B1B68002B3ED0294B19684F
:10580000EFF3108272B60B68002BFCD0BFF35F8FF2
:1058100024494A602448037801246340DBB2012410
:1058200004700968BFF35F8F0020086082F310885E
:10583000002B22D0FCF776FB0400FCF713FE0200DD
:105840000B1E1CDBFA208000002112184B41002B9C
:105850001BDB002B1DDB012102910021019113496B
:1058600000912000FCF774FB07E00120002140427A
:1058700001F0F8F80A4817F053F804B010BD0C4BCB
:105880000C4A3F210C48FDF73DFC012252420B4BD4
:10589000DFE7074B074A3F210748FDF733FCC046C7
:1058A00000E2002068CD0020C5E3022089570010E7
:1058B00070CC011000E101108CCC0110FFFFFF7FC4
:1058C00010B5054B1868002804D0044B1968002255
:1058D00000F0EEFD10BDC046A01E0020A81E002056
:1058E00010B584B0D0231B061C68FCF71BFBFCF72B
:1058F0005FFCA0422AD1324B1B7801F09BFD31485E
:10590000FBF782FF0120FBF763FFC0B22E4C207033
:105910002E49FBF7A9FC20780121FBF77BFC052031
:10592000FBF790FC041E17D0002229490520FBF745
:10593000C5FCFBF7DDFB01002648FBF783FF0121D7
:105940002548FFF723FD200004B010BD234B244A57
:10595000B2212448FDF7D6FBFCF7E4FA0400FCF77B
:1059600081FD02000B1E1BDBFA20800000211218B3
:105970004B41002B1ADB002B1CDB01210291002183
:105980000191194900912000FCF7E2FAC443E40FA9
:10599000082200210F48FFF777FB002CD3D0CEE779
:1059A000124B134A3F211348FDF7ACFB0122524230
:1059B000114BE0E70D4B0E4A3F210E48FDF7A2FBCD
:1059C000F0C2051000E20020C3E30220E5570010FA
:1059D0007957001068CD0020180D0020ACD10110BF
:1059E000F0E001106CE001108957001070CC01103C
:1059F00000E101108CCC0110FFFFFF7F10B50020EB
:105A000001F038FA10BD000070B505000C00FFF77A
:105A1000F5FF002845D0002001F04EFA002843D0C1
:105A2000FCF720FD02000B1E21DB2248002112188A
:105A30004B41002B21DB002B23DB1F4816F0B0FF6E
:105A4000002834D0FFF7DAFF002804D0002001F04E
:105A500033FA00281BD101200021404201F002F856
:105A600003246442144816F05BFF200070BD134B02
:105A7000134A3F211348FDF745FB01225242124BC6
:105A8000D9E70E4B0E4A3F210E48FDF73BFB2200A3
:105A90002900002001F01CFA041EE3D10324644213
:105AA000E0E703246442E0E703246442DDE70324E3
:105AB0006442DAE740420F0000E2002070CC01109F
:105AC00000E101108CCC0110FFFFFF7FF0B5C6464E
:105AD00000B580460C00FCF7C5FC02000B1E0FDB76
